{
  "_format": "hh-sol-artifact-1",
  "contractName": "RewardDistributor",
  "sourceName": "contracts/RewardDistributor.sol",
  "abi": [
    {
      "inputs": [
        {
          "internalType": "uint256",
          "name": "_duration",
          "type": "uint256"
        },
        {
          "internalType": "address",
          "name": "_veSheep",
          "type": "address"
        },
        {
          "internalType": "address",
          "name": "_LPToken",
          "type": "address"
        },
        {
          "internalType": "uint256",
          "name": "_periodToUnstake",
          "type": "uint256"
        }
      ],
      "stateMutability": "nonpayable",
      "type": "constructor"
    },
    {
      "anonymous": false,
      "inputs": [
        {
          "indexed": false,
          "internalType": "uint256",
          "name": "index",
          "type": "uint256"
        },
        {
          "indexed": false,
          "internalType": "address",
          "name": "account",
          "type": "address"
        },
        {
          "indexed": false,
          "internalType": "uint256",
          "name": "amount",
          "type": "uint256"
        }
      ],
      "name": "Claimed",
      "type": "event"
    },
    {
      "anonymous": false,
      "inputs": [
        {
          "indexed": false,
          "internalType": "uint256",
          "name": "index",
          "type": "uint256"
        },
        {
          "indexed": false,
          "internalType": "address",
          "name": "token",
          "type": "address"
        },
        {
          "indexed": false,
          "internalType": "uint256",
          "name": "amount",
          "type": "uint256"
        }
      ],
      "name": "NewDistributionPeriod",
      "type": "event"
    },
    {
      "anonymous": false,
      "inputs": [
        {
          "indexed": true,
          "internalType": "address",
          "name": "previousOwner",
          "type": "address"
        },
        {
          "indexed": true,
          "internalType": "address",
          "name": "newOwner",
          "type": "address"
        }
      ],
      "name": "OwnershipTransferred",
      "type": "event"
    },
    {
      "anonymous": false,
      "inputs": [
        {
          "indexed": false,
          "internalType": "uint256",
          "name": "index",
          "type": "uint256"
        },
        {
          "indexed": false,
          "internalType": "uint256",
          "name": "amount",
          "type": "uint256"
        }
      ],
      "name": "RewardLeftRecovered",
      "type": "event"
    },
    {
      "anonymous": false,
      "inputs": [
        {
          "indexed": false,
          "internalType": "address",
          "name": "account",
          "type": "address"
        },
        {
          "indexed": false,
          "internalType": "uint256",
          "name": "amount",
          "type": "uint256"
        },
        {
          "indexed": false,
          "internalType": "uint256",
          "name": "period",
          "type": "uint256"
        }
      ],
      "name": "Staked",
      "type": "event"
    },
    {
      "anonymous": false,
      "inputs": [
        {
          "indexed": false,
          "internalType": "address",
          "name": "account",
          "type": "address"
        },
        {
          "indexed": false,
          "internalType": "uint256",
          "name": "amount",
          "type": "uint256"
        },
        {
          "indexed": false,
          "internalType": "bool",
          "name": "withdrewMax",
          "type": "bool"
        }
      ],
      "name": "Unstaked",
      "type": "event"
    },
    {
      "inputs": [],
      "name": "LPToken",
      "outputs": [
        {
          "internalType": "address",
          "name": "",
          "type": "address"
        }
      ],
      "stateMutability": "view",
      "type": "function"
    },
    {
      "inputs": [
        {
          "internalType": "address",
          "name": "_token",
          "type": "address"
        },
        {
          "internalType": "bytes32",
          "name": "_merkleRoot",
          "type": "bytes32"
        },
        {
          "internalType": "uint256",
          "name": "_amount",
          "type": "uint256"
        }
      ],
      "name": "addMerkleTree",
      "outputs": [],
      "stateMutability": "nonpayable",
      "type": "function"
    },
    {
      "inputs": [
        {
          "internalType": "uint256",
          "name": "_index",
          "type": "uint256"
        },
        {
          "internalType": "uint256",
          "name": "_amount",
          "type": "uint256"
        },
        {
          "internalType": "bytes32[]",
          "name": "_merkleProofs",
          "type": "bytes32[]"
        }
      ],
      "name": "claim",
      "outputs": [],
      "stateMutability": "nonpayable",
      "type": "function"
    },
    {
      "inputs": [
        {
          "internalType": "uint256",
          "name": "",
          "type": "uint256"
        },
        {
          "internalType": "address",
          "name": "",
          "type": "address"
        }
      ],
      "name": "claimedMap",
      "outputs": [
        {
          "internalType": "bool",
          "name": "",
          "type": "bool"
        }
      ],
      "stateMutability": "view",
      "type": "function"
    },
    {
      "inputs": [],
      "name": "currentIndex",
      "outputs": [
        {
          "internalType": "uint256",
          "name": "",
          "type": "uint256"
        }
      ],
      "stateMutability": "view",
      "type": "function"
    },
    {
      "inputs": [],
      "name": "getStakers",
      "outputs": [
        {
          "internalType": "address[]",
          "name": "",
          "type": "address[]"
        }
      ],
      "stateMutability": "view",
      "type": "function"
    },
    {
      "inputs": [
        {
          "internalType": "address",
          "name": "user",
          "type": "address"
        }
      ],
      "name": "getUserInfo",
      "outputs": [
        {
          "components": [
            {
              "internalType": "uint256",
              "name": "amountLP",
              "type": "uint256"
            },
            {
              "internalType": "uint256",
              "name": "depositPeriod",
              "type": "uint256"
            }
          ],
          "internalType": "struct RewardDistributor.UserInfo",
          "name": "",
          "type": "tuple"
        }
      ],
      "stateMutability": "view",
      "type": "function"
    },
    {
      "inputs": [
        {
          "internalType": "uint256",
          "name": "_index",
          "type": "uint256"
        },
        {
          "internalType": "address",
          "name": "_account",
          "type": "address"
        }
      ],
      "name": "isClaimed",
      "outputs": [
        {
          "internalType": "bool",
          "name": "",
          "type": "bool"
        }
      ],
      "stateMutability": "view",
      "type": "function"
    },
    {
      "inputs": [
        {
          "internalType": "uint256",
          "name": "",
          "type": "uint256"
        }
      ],
      "name": "merkleTrees",
      "outputs": [
        {
          "internalType": "uint256",
          "name": "index",
          "type": "uint256"
        },
        {
          "internalType": "uint256",
          "name": "creationTimestamp",
          "type": "uint256"
        },
        {
          "internalType": "uint256",
          "name": "totalBalance",
          "type": "uint256"
        },
        {
          "internalType": "uint256",
          "name": "claimed",
          "type": "uint256"
        },
        {
          "internalType": "address",
          "name": "token",
          "type": "address"
        },
        {
          "internalType": "bytes32",
          "name": "merkleRoot",
          "type": "bytes32"
        }
      ],
      "stateMutability": "view",
      "type": "function"
    },
    {
      "inputs": [],
      "name": "owner",
      "outputs": [
        {
          "internalType": "address",
          "name": "",
          "type": "address"
        }
      ],
      "stateMutability": "view",
      "type": "function"
    },
    {
      "inputs": [
        {
          "internalType": "uint256",
          "name": "",
          "type": "uint256"
        }
      ],
      "name": "path",
      "outputs": [
        {
          "internalType": "address",
          "name": "",
          "type": "address"
        }
      ],
      "stateMutability": "view",
      "type": "function"
    },
    {
      "inputs": [],
      "name": "periodToClaim",
      "outputs": [
        {
          "internalType": "uint256",
          "name": "",
          "type": "uint256"
        }
      ],
      "stateMutability": "view",
      "type": "function"
    },
    {
      "inputs": [],
      "name": "periodToUnstake",
      "outputs": [
        {
          "internalType": "uint256",
          "name": "",
          "type": "uint256"
        }
      ],
      "stateMutability": "view",
      "type": "function"
    },
    {
      "inputs": [
        {
          "internalType": "uint256",
          "name": "_index",
          "type": "uint256"
        }
      ],
      "name": "recoverRewardLeft",
      "outputs": [],
      "stateMutability": "nonpayable",
      "type": "function"
    },
    {
      "inputs": [],
      "name": "renounceOwnership",
      "outputs": [],
      "stateMutability": "nonpayable",
      "type": "function"
    },
    {
      "inputs": [],
      "name": "router",
      "outputs": [
        {
          "internalType": "address",
          "name": "",
          "type": "address"
        }
      ],
      "stateMutability": "view",
      "type": "function"
    },
    {
      "inputs": [
        {
          "internalType": "uint256",
          "name": "_duration",
          "type": "uint256"
        }
      ],
      "name": "setDuration",
      "outputs": [],
      "stateMutability": "nonpayable",
      "type": "function"
    },
    {
      "inputs": [
        {
          "internalType": "address",
          "name": "_LPToken",
          "type": "address"
        }
      ],
      "name": "setLPToken",
      "outputs": [],
      "stateMutability": "nonpayable",
      "type": "function"
    },
    {
      "inputs": [
        {
          "internalType": "address[]",
          "name": "_path",
          "type": "address[]"
        }
      ],
      "name": "setPath",
      "outputs": [],
      "stateMutability": "nonpayable",
      "type": "function"
    },
    {
      "inputs": [
        {
          "internalType": "address",
          "name": "_router",
          "type": "address"
        }
      ],
      "name": "setRouter",
      "outputs": [],
      "stateMutability": "nonpayable",
      "type": "function"
    },
    {
      "inputs": [
        {
          "internalType": "uint256",
          "name": "_periodToUnstake",
          "type": "uint256"
        }
      ],
      "name": "setUnstakingPeriod",
      "outputs": [],
      "stateMutability": "nonpayable",
      "type": "function"
    },
    {
      "inputs": [
        {
          "internalType": "uint256",
          "name": "_amountLP",
          "type": "uint256"
        }
      ],
      "name": "stake",
      "outputs": [],
      "stateMutability": "nonpayable",
      "type": "function"
    },
    {
      "inputs": [
        {
          "internalType": "address",
          "name": "",
          "type": "address"
        }
      ],
      "name": "stakersLP",
      "outputs": [
        {
          "internalType": "uint256",
          "name": "amountLP",
          "type": "uint256"
        },
        {
          "internalType": "uint256",
          "name": "depositPeriod",
          "type": "uint256"
        }
      ],
      "stateMutability": "view",
      "type": "function"
    },
    {
      "inputs": [
        {
          "internalType": "uint256",
          "name": "_index",
          "type": "uint256"
        },
        {
          "internalType": "uint256",
          "name": "_amount",
          "type": "uint256"
        },
        {
          "internalType": "bytes32[]",
          "name": "_merkleProofs",
          "type": "bytes32[]"
        }
      ],
      "name": "swapAndStakeCurrentTreeRewards",
      "outputs": [],
      "stateMutability": "nonpayable",
      "type": "function"
    },
    {
      "inputs": [
        {
          "internalType": "address",
          "name": "newOwner",
          "type": "address"
        }
      ],
      "name": "transferOwnership",
      "outputs": [],
      "stateMutability": "nonpayable",
      "type": "function"
    },
    {
      "inputs": [
        {
          "internalType": "uint256",
          "name": "_amountLP",
          "type": "uint256"
        }
      ],
      "name": "unstake",
      "outputs": [],
      "stateMutability": "nonpayable",
      "type": "function"
    },
    {
      "inputs": [],
      "name": "veSheep",
      "outputs": [
        {
          "internalType": "address",
          "name": "",
          "type": "address"
        }
      ],
      "stateMutability": "view",
      "type": "function"
    }
  ],
  "bytecode": "0x60806040523480156200001157600080fd5b5060405162002142380380620021428339810160408190526200003491620000ee565b600160005562000044336200007f565b600393909355600480546001600160a01b039384166001600160a01b03199182161790915560088054929093169116179055600b5562000137565b600180546001600160a01b038381166001600160a01b0319831681179093556040519116919082907f8be0079c531659141344cd1fd0a4f28419497f9722a3daafe3b4186f6b6457e090600090a35050565b80516001600160a01b0381168114620000e957600080fd5b919050565b600080600080608085870312156200010557600080fd5b845193506200011760208601620000d1565b92506200012760408601620000d1565b6060959095015193969295505050565b611ffb80620001476000396000f3fe608060405234801561001057600080fd5b50600436106101795760003560e01c8063715018a6116100d9578063ae0b51df11610087578063ae0b51df14610418578063af6d1fe41461042b578063c0d786551461043e578063d2ef079514610451578063f2fde38b14610464578063f6be71d114610477578063f887ea401461048a57600080fd5b8063715018a614610337578063853515b51461033f57806385d88cb1146103525780638da5cb5b146103d75780639dff2881146103df578063a694fc3a146103f2578063a83a72d01461040557600080fd5b806335a85c1d1161013657806335a85c1d1461022a57806343352d611461026657806343a333bb1461027b5780636386c1c71461028e57806363955154146102fe578063686ca00d146103115780636a678a9c1461032457600080fd5b8063011cee361461017e57806301702ccd146101ae5780630ea36635146101c55780631c590feb146101ce57806326987b601461020c5780632e17de7814610215575b600080fd5b600854610191906001600160a01b031681565b6040516001600160a01b0390911681526020015b60405180910390f35b6101b7600b5481565b6040519081526020016101a5565b6101b760035481565b6101fc6101dc366004611999565b600660209081526000928352604080842090915290825290205460ff1681565b60405190151581526020016101a5565b6101b760025481565b6102286102233660046119c5565b61049d565b005b6102516102383660046119de565b6007602052600090815260409020805460019091015482565b604080519283526020830191909152016101a5565b61026e61063a565b6040516101a591906119f9565b6102286102893660046119c5565b61064b565b6102e361029c3660046119de565b6040805180820190915260008082526020820152506001600160a01b0316600090815260076020908152604091829020825180840190935280548352600101549082015290565b604080518251815260209283015192810192909252016101a5565b600454610191906001600160a01b031681565b61022861031f366004611a92565b61067f565b6102286103323660046119de565b6106bf565b610228610710565b61022861034d3660046119c5565b61074b565b6103a16103603660046119c5565b60056020819052600091825260409091208054600182015460028301546003840154600485015494909501549294919390926001600160a01b039091169086565b6040805196875260208701959095529385019290925260608401526001600160a01b0316608083015260a082015260c0016101a5565b610191610938565b6102286103ed366004611ad4565b610947565b6102286104003660046119c5565b610cd7565b610228610413366004611b27565b610da6565b610228610426366004611ad4565b610e86565b6101916104393660046119c5565b6110ad565b61022861044c3660046119de565b6110d7565b6101fc61045f366004611999565b611128565b6102286104723660046119de565b611155565b6102286104853660046119c5565b6111f5565b600d54610191906001600160a01b031681565b600260005414156104c95760405162461bcd60e51b81526004016104c090611b5a565b60405180910390fd5b60026000908155600b54338252600760205260409091206001015442916104ef91611ba7565b106105335760405162461bcd60e51b8152602060048201526014602482015273546f6f20736f6f6e20746f20776974686472617760601b60448201526064016104c0565b336000908152600760205260409020548111156105875760405162461bcd60e51b81526020600482015260126024820152716e6f7420656e6f7567682062616c616e636560701b60448201526064016104c0565b336000908152600760205260408120426001820155548214156105b5576105af600933611229565b50600190505b33600090815260076020526040812080548492906105d4908490611bbf565b90915550506008546105f0906001600160a01b03163384611245565b60408051338152602081018490528215158183015290517f4416ca74b4c9dd8d6070d91c267a6cf53734c0f343ced0ad02471ccb5417037e9181900360600190a150506001600055565b6060610646600961129b565b905090565b33610654610938565b6001600160a01b03161461067a5760405162461bcd60e51b81526004016104c090611bd6565b600b55565b33610688610938565b6001600160a01b0316146106ae5760405162461bcd60e51b81526004016104c090611bd6565b6106ba600c8383611905565b505050565b336106c8610938565b6001600160a01b0316146106ee5760405162461bcd60e51b81526004016104c090611bd6565b600880546001600160a01b0319166001600160a01b0392909216919091179055565b33610719610938565b6001600160a01b03161461073f5760405162461bcd60e51b81526004016104c090611bd6565b61074960006112a8565b565b33610754610938565b6001600160a01b03161461077a5760405162461bcd60e51b81526004016104c090611bd6565b600081815260056020818152604092839020835160c081018552815481526001820154928101839052600282015494810194909452600380820154606086015260048201546001600160a01b0316608086015292015460a0840152905442916107e39190611ba7565b11156108295760405162461bcd60e51b81526020600482015260156024820152742234b9ba3934b13aba34b7b7103737ba1037bb32b960591b60448201526064016104c0565b60008160600151826040015161083f9190611bbf565b905080156108fa5781608001516001600160a01b031663a9059cbb338460600151856040015161086f9190611bbf565b6040518363ffffffff1660e01b815260040161088c929190611c0b565b602060405180830381600087803b1580156108a657600080fd5b505af11580156108ba573d6000803e3d6000fd5b505050506040513d601f19601f820116820180604052508101906108de9190611c24565b6108fa5760405162461bcd60e51b81526004016104c090611c46565b60408051848152602081018390527fa7eb52e7ecaf589947d424e775d5ee9f33300cdaa2520fba36a2c9cfd2dae1b9910160405180910390a1505050565b6001546001600160a01b031690565b6109518433611128565b1561096e5760405162461bcd60e51b81526004016104c090611c89565b60008481526005602052604090206003546001820154429161098f91611ba7565b10156109ad5760405162461bcd60e51b81526004016104c090611cd1565b60008533866040516020016109c493929190611d18565b604051602081830303815290604052805190602001209050610a1d8484808060200260200160405190810160405280939291908181526020018383602002808284376000920191909152505050506005840154836112fa565b610a395760405162461bcd60e51b81526004016104c090611d40565b610a438633611310565b84826003016000828254610a579190611ba7565b90915550506040517f4ec90e965519d92681267467f775ada5bd214aa92c0dc93d90a5e880ce9ed02690610a9090889033908990611d81565b60405180910390a1600d54600c8054610ada926001600160a01b0316918891600090610abe57610abe611da0565b6000918252602090912001546001600160a01b03169190611340565b600d546000906001600160a01b03166338ed1739876001600c30610b0042612710611ba7565b6040518663ffffffff1660e01b8152600401610b20959493929190611db6565b600060405180830381600087803b158015610b3a57600080fd5b505af1158015610b4e573d6000803e3d6000fd5b505050506040513d6000823e601f3d908101601f19168201604052610b769190810190611e42565b9050600c600181548110610b8c57610b8c611da0565b60009182526020909120015460045482516001600160a01b039283169263095ea7b392169084906001908110610bc457610bc4611da0565b60200260200101516040518363ffffffff1660e01b8152600401610be9929190611c0b565b602060405180830381600087803b158015610c0357600080fd5b505af1158015610c17573d6000803e3d6000fd5b505050506040513d601f19601f82011682018060405250810190610c3b9190611c24565b5060045481516001600160a01b03909116906334ce1ed29083906001908110610c6657610c66611da0565b60209081029190910101516040516001600160e01b031960e084901b1681526004810191909152306024820152336044820152606401600060405180830381600087803b158015610cb657600080fd5b505af1158015610cca573d6000803e3d6000fd5b5050505050505050505050565b60026000541415610cfa5760405162461bcd60e51b81526004016104c090611b5a565b6002600055600854610d17906001600160a01b0316333084611453565b610d2260093361148b565b503360009081526007602052604081204260018201558054839290610d48908490611ba7565b90915550503360008181526007602090815260409182902060010154825193845290830184905282820152517f1449c6dd7851abc30abf37f57715f492010519147cc2652fbc38202c18a6ee909181900360600190a1506001600055565b33610daf610938565b6001600160a01b031614610dd55760405162461bcd60e51b81526004016104c090611bd6565b6040805160c081018252600280548083524260208085019182528486018781526000606087018181526001600160a01b038c811660808a0190815260a08a018d8152978452600595869052998320895181559551600187015592518588015551600385015596516004840180546001600160a01b03191691909216179055915191015580549192610e6583611f00565b90915550610e8090506001600160a01b038516333085611453565b50505050565b60026000541415610ea95760405162461bcd60e51b81526004016104c090611b5a565b6002600055610eb88433611128565b15610ed55760405162461bcd60e51b81526004016104c090611c89565b600084815260056020526040902060035460018201544291610ef691611ba7565b1015610f145760405162461bcd60e51b81526004016104c090611cd1565b6000853386604051602001610f2b93929190611d18565b604051602081830303815290604052805190602001209050610f848484808060200260200160405190810160405280939291908181526020018383602002808284376000920191909152505050506005840154836112fa565b610fa05760405162461bcd60e51b81526004016104c090611d40565b610faa8633611310565b60048083015460405163a9059cbb60e01b81526001600160a01b039091169163a9059cbb91610fdd9133918a9101611c0b565b602060405180830381600087803b158015610ff757600080fd5b505af115801561100b573d6000803e3d6000fd5b505050506040513d601f19601f8201168201806040525081019061102f9190611c24565b61104b5760405162461bcd60e51b81526004016104c090611c46565b8482600301600082825461105f9190611ba7565b90915550506040517f4ec90e965519d92681267467f775ada5bd214aa92c0dc93d90a5e880ce9ed0269061109890889033908990611d81565b60405180910390a15050600160005550505050565b600c81815481106110bd57600080fd5b6000918252602090912001546001600160a01b0316905081565b336110e0610938565b6001600160a01b0316146111065760405162461bcd60e51b81526004016104c090611bd6565b600d80546001600160a01b0319166001600160a01b0392909216919091179055565b60008281526006602090815260408083206001600160a01b038516845290915290205460ff165b92915050565b3361115e610938565b6001600160a01b0316146111845760405162461bcd60e51b81526004016104c090611bd6565b6001600160a01b0381166111e95760405162461bcd60e51b815260206004820152602660248201527f4f776e61626c653a206e6577206f776e657220697320746865207a65726f206160448201526564647265737360d01b60648201526084016104c0565b6111f2816112a8565b50565b336111fe610938565b6001600160a01b0316146112245760405162461bcd60e51b81526004016104c090611bd6565b600355565b600061123e836001600160a01b0384166114a0565b9392505050565b6106ba8363a9059cbb60e01b8484604051602401611264929190611c0b565b60408051601f198184030181529190526020810180516001600160e01b03166001600160e01b031990931692909217909152611593565b6060600061123e83611665565b600180546001600160a01b038381166001600160a01b0319831681179093556040519116919082907f8be0079c531659141344cd1fd0a4f28419497f9722a3daafe3b4186f6b6457e090600090a35050565b60008261130785846116c1565b14949350505050565b60009182526006602090815260408084206001600160a01b0390931684529190529020805460ff19166001179055565b8015806113c95750604051636eb1769f60e11b81523060048201526001600160a01b03838116602483015284169063dd62ed3e9060440160206040518083038186803b15801561138f57600080fd5b505afa1580156113a3573d6000803e3d6000fd5b505050506040513d601f19601f820116820180604052508101906113c79190611f1b565b155b6114345760405162461bcd60e51b815260206004820152603660248201527f5361666545524332303a20617070726f76652066726f6d206e6f6e2d7a65726f60448201527520746f206e6f6e2d7a65726f20616c6c6f77616e636560501b60648201526084016104c0565b6106ba8363095ea7b360e01b8484604051602401611264929190611c0b565b6040516001600160a01b0380851660248301528316604482015260648101829052610e809085906323b872dd60e01b90608401611264565b600061123e836001600160a01b038416611735565b600081815260018301602052604081205480156115895760006114c4600183611bbf565b85549091506000906114d890600190611bbf565b905081811461153d5760008660000182815481106114f8576114f8611da0565b906000526020600020015490508087600001848154811061151b5761151b611da0565b6000918252602080832090910192909255918252600188019052604090208390555b855486908061154e5761154e611f34565b60019003818190600052602060002001600090559055856001016000868152602001908152602001600020600090556001935050505061114f565b600091505061114f565b60006115e8826040518060400160405280602081526020017f5361666545524332303a206c6f772d6c6576656c2063616c6c206661696c6564815250856001600160a01b03166117849092919063ffffffff16565b8051909150156106ba57808060200190518101906116069190611c24565b6106ba5760405162461bcd60e51b815260206004820152602a60248201527f5361666545524332303a204552433230206f7065726174696f6e20646964206e6044820152691bdd081cdd58d8d9595960b21b60648201526084016104c0565b6060816000018054806020026020016040519081016040528092919081815260200182805480156116b557602002820191906000526020600020905b8154815260200190600101908083116116a1575b50505050509050919050565b600081815b845181101561172d5760008582815181106116e3576116e3611da0565b60200260200101519050808311611709576000838152602082905260409020925061171a565b600081815260208490526040902092505b508061172581611f00565b9150506116c6565b509392505050565b600081815260018301602052604081205461177c5750815460018181018455600084815260208082209093018490558454848252828601909352604090209190915561114f565b50600061114f565b6060611793848460008561179b565b949350505050565b6060824710156117fc5760405162461bcd60e51b815260206004820152602660248201527f416464726573733a20696e73756666696369656e742062616c616e636520666f6044820152651c8818d85b1b60d21b60648201526084016104c0565b6001600160a01b0385163b6118535760405162461bcd60e51b815260206004820152601d60248201527f416464726573733a2063616c6c20746f206e6f6e2d636f6e747261637400000060448201526064016104c0565b600080866001600160a01b0316858760405161186f9190611f76565b60006040518083038185875af1925050503d80600081146118ac576040519150601f19603f3d011682016040523d82523d6000602084013e6118b1565b606091505b50915091506118c18282866118cc565b979650505050505050565b606083156118db57508161123e565b8251156118eb5782518084602001fd5b8160405162461bcd60e51b81526004016104c09190611f92565b828054828255906000526020600020908101928215611958579160200282015b828111156119585781546001600160a01b0319166001600160a01b03843516178255602090920191600190910190611925565b50611964929150611968565b5090565b5b808211156119645760008155600101611969565b80356001600160a01b038116811461199457600080fd5b919050565b600080604083850312156119ac57600080fd5b823591506119bc6020840161197d565b90509250929050565b6000602082840312156119d757600080fd5b5035919050565b6000602082840312156119f057600080fd5b61123e8261197d565b6020808252825182820181905260009190848201906040850190845b81811015611a3a5783516001600160a01b031683529284019291840191600101611a15565b50909695505050505050565b60008083601f840112611a5857600080fd5b50813567ffffffffffffffff811115611a7057600080fd5b6020830191508360208260051b8501011115611a8b57600080fd5b9250929050565b60008060208385031215611aa557600080fd5b823567ffffffffffffffff811115611abc57600080fd5b611ac885828601611a46565b90969095509350505050565b60008060008060608587031215611aea57600080fd5b8435935060208501359250604085013567ffffffffffffffff811115611b0f57600080fd5b611b1b87828801611a46565b95989497509550505050565b600080600060608486031215611b3c57600080fd5b611b458461197d565b95602085013595506040909401359392505050565b6020808252601f908201527f5265656e7472616e637947756172643a207265656e7472616e742063616c6c00604082015260600190565b634e487b7160e01b600052601160045260246000fd5b60008219821115611bba57611bba611b91565b500190565b600082821015611bd157611bd1611b91565b500390565b6020808252818101527f4f776e61626c653a2063616c6c6572206973206e6f7420746865206f776e6572604082015260600190565b6001600160a01b03929092168252602082015260400190565b600060208284031215611c3657600080fd5b8151801515811461123e57600080fd5b60208082526023908201527f4d65726b6c654469737472696275746f723a205472616e73666572206661696c60408201526232b21760e91b606082015260800190565b60208082526028908201527f4d65726b6c654469737472696275746f723a2044726f7020616c72656164792060408201526731b630b4b6b2b21760c11b606082015260800190565b60208082526027908201527f4d65726b6c654469737472696275746f723a20646973747269627574696f6e2060408201526634b99037bb32b960c91b606082015260800190565b92835260609190911b6bffffffffffffffffffffffff19166020830152603482015260540190565b60208082526021908201527f4d65726b6c654469737472696275746f723a20496e76616c69642070726f6f666040820152601760f91b606082015260800190565b9283526001600160a01b03919091166020830152604082015260600190565b634e487b7160e01b600052603260045260246000fd5b600060a082018783526020878185015260a0604085015281875480845260c0860191508860005282600020935060005b81811015611e0b5784546001600160a01b031683526001948501949284019201611de6565b50506001600160a01b03969096166060850152505050608001529392505050565b634e487b7160e01b600052604160045260246000fd5b60006020808385031215611e5557600080fd5b825167ffffffffffffffff80821115611e6d57600080fd5b818501915085601f830112611e8157600080fd5b815181811115611e9357611e93611e2c565b8060051b604051601f19603f83011681018181108582111715611eb857611eb8611e2c565b604052918252848201925083810185019188831115611ed657600080fd5b938501935b82851015611ef457845184529385019392850192611edb565b98975050505050505050565b6000600019821415611f1457611f14611b91565b5060010190565b600060208284031215611f2d57600080fd5b5051919050565b634e487b7160e01b600052603160045260246000fd5b60005b83811015611f65578181015183820152602001611f4d565b83811115610e805750506000910152565b60008251611f88818460208701611f4a565b9190910192915050565b6020815260008251806020840152611fb1816040850160208701611f4a565b601f01601f1916919091016040019291505056fea2646970667358221220492efd31a3369e24e28d2cc7b2ff76fbdd72339fc8871a133920da83d8cb1cd964736f6c63430008080033",
  "linkReferences": {},
  "deployedLinkReferences": {}
}