{
  "_format": "hh-sol-artifact-1",
  "contractName": "Vault",
  "sourceName": "contracts/Vault.sol",
  "abi": [
    {
      "inputs": [
        {
          "internalType": "uint256",
          "name": "value",
          "type": "uint256"
        }
      ],
      "name": "BadRange",
      "type": "error"
    },
    {
      "inputs": [
        {
          "internalType": "bytes",
          "name": "result",
          "type": "bytes"
        }
      ],
      "name": "DexAggSwap",
      "type": "error"
    },
    {
      "inputs": [
        {
          "internalType": "uint256",
          "name": "amount",
          "type": "uint256"
        }
      ],
      "name": "MaxAUM",
      "type": "error"
    },
    {
      "inputs": [
        {
          "internalType": "uint256",
          "name": "amount",
          "type": "uint256"
        }
      ],
      "name": "MaxDeposit",
      "type": "error"
    },
    {
      "inputs": [
        {
          "internalType": "uint256",
          "name": "amount",
          "type": "uint256"
        }
      ],
      "name": "MinDeposit",
      "type": "error"
    },
    {
      "inputs": [],
      "name": "MintZero",
      "type": "error"
    },
    {
      "inputs": [],
      "name": "Paused",
      "type": "error"
    },
    {
      "inputs": [],
      "name": "PriceFeedPrecision",
      "type": "error"
    },
    {
      "inputs": [
        {
          "internalType": "uint256",
          "name": "worthBaseTokenDue",
          "type": "uint256"
        },
        {
          "internalType": "uint256",
          "name": "maxToRedeem",
          "type": "uint256"
        }
      ],
      "name": "RedeemMax",
      "type": "error"
    },
    {
      "inputs": [],
      "name": "RedeemZero",
      "type": "error"
    },
    {
      "inputs": [
        {
          "internalType": "uint256",
          "name": "amountInWorth",
          "type": "uint256"
        },
        {
          "internalType": "uint256",
          "name": "amountOutWorth",
          "type": "uint256"
        }
      ],
      "name": "SwapOutput",
      "type": "error"
    },
    {
      "inputs": [
        {
          "internalType": "uint256",
          "name": "time",
          "type": "uint256"
        }
      ],
      "name": "TimeLock",
      "type": "error"
    },
    {
      "inputs": [
        {
          "internalType": "address",
          "name": "user",
          "type": "address"
        }
      ],
      "name": "Unauthorized",
      "type": "error"
    },
    {
      "inputs": [
        {
          "internalType": "address",
          "name": "token",
          "type": "address"
        }
      ],
      "name": "UnknownToken",
      "type": "error"
    },
    {
      "anonymous": false,
      "inputs": [
        {
          "indexed": true,
          "internalType": "address",
          "name": "user",
          "type": "address"
        },
        {
          "indexed": false,
          "internalType": "uint256",
          "name": "baseTokenAmount",
          "type": "uint256"
        },
        {
          "indexed": false,
          "internalType": "uint256",
          "name": "sharesAmount",
          "type": "uint256"
        },
        {
          "indexed": false,
          "internalType": "uint256",
          "name": "timestamp",
          "type": "uint256"
        }
      ],
      "name": "Deposit",
      "type": "event"
    },
    {
      "anonymous": false,
      "inputs": [
        {
          "indexed": false,
          "internalType": "address",
          "name": "harvester",
          "type": "address"
        },
        {
          "indexed": false,
          "internalType": "uint256",
          "name": "toDAO",
          "type": "uint256"
        },
        {
          "indexed": false,
          "internalType": "uint256",
          "name": "toTrader",
          "type": "uint256"
        }
      ],
      "name": "HarvestManagementFees",
      "type": "event"
    },
    {
      "anonymous": false,
      "inputs": [
        {
          "indexed": false,
          "internalType": "address",
          "name": "harvester",
          "type": "address"
        },
        {
          "indexed": false,
          "internalType": "uint256",
          "name": "toDAO",
          "type": "uint256"
        },
        {
          "indexed": false,
          "internalType": "uint256",
          "name": "toTrader",
          "type": "uint256"
        }
      ],
      "name": "HarvestPerformanceFees",
      "type": "event"
    },
    {
      "anonymous": false,
      "inputs": [
        {
          "indexed": false,
          "internalType": "address",
          "name": "trader",
          "type": "address"
        },
        {
          "indexed": false,
          "internalType": "uint256[]",
          "name": "signals",
          "type": "uint256[]"
        },
        {
          "indexed": false,
          "internalType": "uint256",
          "name": "timestamp",
          "type": "uint256"
        }
      ],
      "name": "Rebalance",
      "type": "event"
    },
    {
      "anonymous": false,
      "inputs": [
        {
          "indexed": true,
          "internalType": "address",
          "name": "user",
          "type": "address"
        },
        {
          "indexed": false,
          "internalType": "uint256",
          "name": "shareAmount",
          "type": "uint256"
        },
        {
          "indexed": false,
          "internalType": "uint256",
          "name": "timestamp",
          "type": "uint256"
        }
      ],
      "name": "Redeem",
      "type": "event"
    },
    {
      "anonymous": false,
      "inputs": [
        {
          "indexed": true,
          "internalType": "bytes32",
          "name": "role",
          "type": "bytes32"
        },
        {
          "indexed": true,
          "internalType": "bytes32",
          "name": "previousAdminRole",
          "type": "bytes32"
        },
        {
          "indexed": true,
          "internalType": "bytes32",
          "name": "newAdminRole",
          "type": "bytes32"
        }
      ],
      "name": "RoleAdminChanged",
      "type": "event"
    },
    {
      "anonymous": false,
      "inputs": [
        {
          "indexed": true,
          "internalType": "bytes32",
          "name": "role",
          "type": "bytes32"
        },
        {
          "indexed": true,
          "internalType": "address",
          "name": "account",
          "type": "address"
        },
        {
          "indexed": true,
          "internalType": "address",
          "name": "sender",
          "type": "address"
        }
      ],
      "name": "RoleGranted",
      "type": "event"
    },
    {
      "anonymous": false,
      "inputs": [
        {
          "indexed": true,
          "internalType": "bytes32",
          "name": "role",
          "type": "bytes32"
        },
        {
          "indexed": true,
          "internalType": "address",
          "name": "account",
          "type": "address"
        },
        {
          "indexed": true,
          "internalType": "address",
          "name": "sender",
          "type": "address"
        }
      ],
      "name": "RoleRevoked",
      "type": "event"
    },
    {
      "inputs": [],
      "name": "DEFAULT_ADMIN_ROLE",
      "outputs": [
        {
          "internalType": "bytes32",
          "name": "",
          "type": "bytes32"
        }
      ],
      "stateMutability": "view",
      "type": "function"
    },
    {
      "inputs": [],
      "name": "HARVESTER_ROLE",
      "outputs": [
        {
          "internalType": "bytes32",
          "name": "",
          "type": "bytes32"
        }
      ],
      "stateMutability": "view",
      "type": "function"
    },
    {
      "inputs": [],
      "name": "TRADER_ROLE",
      "outputs": [
        {
          "internalType": "bytes32",
          "name": "",
          "type": "bytes32"
        }
      ],
      "stateMutability": "view",
      "type": "function"
    },
    {
      "inputs": [
        {
          "internalType": "uint256[]",
          "name": "_amounts",
          "type": "uint256[]"
        }
      ],
      "name": "approveForSwap",
      "outputs": [],
      "stateMutability": "nonpayable",
      "type": "function"
    },
    {
      "inputs": [
        {
          "internalType": "uint256",
          "name": "_baseTokenAmountIn",
          "type": "uint256"
        },
        {
          "internalType": "bytes[]",
          "name": "_swapTxs",
          "type": "bytes[]"
        }
      ],
      "name": "deposit",
      "outputs": [],
      "stateMutability": "nonpayable",
      "type": "function"
    },
    {
      "inputs": [],
      "name": "enableShareTransferability",
      "outputs": [],
      "stateMutability": "nonpayable",
      "type": "function"
    },
    {
      "inputs": [],
      "name": "getConfigProps",
      "outputs": [
        {
          "components": [
            {
              "internalType": "bool",
              "name": "paused",
              "type": "bool"
            },
            {
              "internalType": "uint8",
              "name": "verified",
              "type": "uint8"
            },
            {
              "internalType": "string",
              "name": "name",
              "type": "string"
            },
            {
              "internalType": "string",
              "name": "description",
              "type": "string"
            }
          ],
          "internalType": "struct VLib.ConfigProps",
          "name": "",
          "type": "tuple"
        }
      ],
      "stateMutability": "view",
      "type": "function"
    },
    {
      "inputs": [],
      "name": "getConstantProps",
      "outputs": [
        {
          "components": [
            {
              "internalType": "address",
              "name": "factory",
              "type": "address"
            },
            {
              "internalType": "uint256",
              "name": "createdAtBlock",
              "type": "uint256"
            },
            {
              "internalType": "contract Share",
              "name": "share",
              "type": "address"
            }
          ],
          "internalType": "struct VLib.ConstantProps",
          "name": "",
          "type": "tuple"
        }
      ],
      "stateMutability": "view",
      "type": "function"
    },
    {
      "inputs": [],
      "name": "getFeesProps",
      "outputs": [
        {
          "components": [
            {
              "internalType": "address",
              "name": "beneficiary",
              "type": "address"
            },
            {
              "internalType": "uint256",
              "name": "exitFees",
              "type": "uint256"
            },
            {
              "internalType": "uint256",
              "name": "managementFeesDayRate",
              "type": "uint256"
            },
            {
              "internalType": "uint256",
              "name": "managementFeesToTrader",
              "type": "uint256"
            },
            {
              "internalType": "uint256",
              "name": "performanceFeesRate",
              "type": "uint256"
            },
            {
              "internalType": "uint256",
              "name": "performanceFeesToTrader",
              "type": "uint256"
            }
          ],
          "internalType": "struct VLib.FeesProps",
          "name": "",
          "type": "tuple"
        }
      ],
      "stateMutability": "view",
      "type": "function"
    },
    {
      "inputs": [],
      "name": "getHistoryProps",
      "outputs": [
        {
          "components": [
            {
              "internalType": "uint256",
              "name": "highWaterMark",
              "type": "uint256"
            },
            {
              "internalType": "uint256[]",
              "name": "signals",
              "type": "uint256[]"
            },
            {
              "internalType": "uint256",
              "name": "prevSwap",
              "type": "uint256"
            },
            {
              "internalType": "uint256",
              "name": "prevMngHarvest",
              "type": "uint256"
            }
          ],
          "internalType": "struct VLib.HistoryProps",
          "name": "",
          "type": "tuple"
        }
      ],
      "stateMutability": "view",
      "type": "function"
    },
    {
      "inputs": [
        {
          "internalType": "address",
          "name": "_priceFeed",
          "type": "address"
        }
      ],
      "name": "getLatestPrice",
      "outputs": [
        {
          "internalType": "uint256",
          "name": "",
          "type": "uint256"
        }
      ],
      "stateMutability": "view",
      "type": "function"
    },
    {
      "inputs": [],
      "name": "getManagementFees",
      "outputs": [
        {
          "internalType": "uint256",
          "name": "",
          "type": "uint256"
        }
      ],
      "stateMutability": "view",
      "type": "function"
    },
    {
      "inputs": [],
      "name": "getPerformanceFees",
      "outputs": [
        {
          "internalType": "uint256",
          "name": "",
          "type": "uint256"
        }
      ],
      "stateMutability": "view",
      "type": "function"
    },
    {
      "inputs": [
        {
          "internalType": "bytes32",
          "name": "role",
          "type": "bytes32"
        }
      ],
      "name": "getRoleAdmin",
      "outputs": [
        {
          "internalType": "bytes32",
          "name": "",
          "type": "bytes32"
        }
      ],
      "stateMutability": "view",
      "type": "function"
    },
    {
      "inputs": [],
      "name": "getSecurityProps",
      "outputs": [
        {
          "components": [
            {
              "internalType": "uint256",
              "name": "maxAUM",
              "type": "uint256"
            },
            {
              "internalType": "uint256",
              "name": "maxLossSwap",
              "type": "uint256"
            },
            {
              "internalType": "uint256",
              "name": "minAmountDeposit",
              "type": "uint256"
            },
            {
              "internalType": "uint256",
              "name": "maxAmountDeposit",
              "type": "uint256"
            },
            {
              "internalType": "uint256",
              "name": "minFrequencySwap",
              "type": "uint256"
            },
            {
              "internalType": "uint256",
              "name": "minSecurityTime",
              "type": "uint256"
            },
            {
              "internalType": "address",
              "name": "swapAdapter",
              "type": "address"
            }
          ],
          "internalType": "struct VLib.SecurityProps",
          "name": "",
          "type": "tuple"
        }
      ],
      "stateMutability": "view",
      "type": "function"
    },
    {
      "inputs": [],
      "name": "getVaultStatus",
      "outputs": [
        {
          "internalType": "uint256[]",
          "name": "positions",
          "type": "uint256[]"
        },
        {
          "internalType": "uint256",
          "name": "sum",
          "type": "uint256"
        },
        {
          "internalType": "uint256",
          "name": "sharePrice",
          "type": "uint256"
        }
      ],
      "stateMutability": "view",
      "type": "function"
    },
    {
      "inputs": [
        {
          "internalType": "bytes32",
          "name": "role",
          "type": "bytes32"
        },
        {
          "internalType": "address",
          "name": "account",
          "type": "address"
        }
      ],
      "name": "grantRole",
      "outputs": [],
      "stateMutability": "nonpayable",
      "type": "function"
    },
    {
      "inputs": [],
      "name": "harvestManagementFees",
      "outputs": [],
      "stateMutability": "nonpayable",
      "type": "function"
    },
    {
      "inputs": [],
      "name": "harvestPerformanceFees",
      "outputs": [],
      "stateMutability": "nonpayable",
      "type": "function"
    },
    {
      "inputs": [
        {
          "internalType": "bytes32",
          "name": "role",
          "type": "bytes32"
        },
        {
          "internalType": "address",
          "name": "account",
          "type": "address"
        }
      ],
      "name": "hasRole",
      "outputs": [
        {
          "internalType": "bool",
          "name": "",
          "type": "bool"
        }
      ],
      "stateMutability": "view",
      "type": "function"
    },
    {
      "inputs": [
        {
          "components": [
            {
              "internalType": "address",
              "name": "tokenAddress",
              "type": "address"
            },
            {
              "internalType": "address",
              "name": "priceFeedAddress",
              "type": "address"
            },
            {
              "internalType": "uint8",
              "name": "priceFeedPrecision",
              "type": "uint8"
            },
            {
              "internalType": "uint256",
              "name": "denominator",
              "type": "uint256"
            }
          ],
          "internalType": "struct VLib.Token[]",
          "name": "_tokens",
          "type": "tuple[]"
        },
        {
          "components": [
            {
              "internalType": "string",
              "name": "vaultName",
              "type": "string"
            },
            {
              "internalType": "string",
              "name": "description",
              "type": "string"
            },
            {
              "internalType": "string",
              "name": "shareName",
              "type": "string"
            },
            {
              "internalType": "string",
              "name": "shareSymbol",
              "type": "string"
            },
            {
              "internalType": "address",
              "name": "trader",
              "type": "address"
            }
          ],
          "internalType": "struct VLib.CreationProps",
          "name": "_creationProps",
          "type": "tuple"
        },
        {
          "components": [
            {
              "internalType": "address",
              "name": "beneficiary",
              "type": "address"
            },
            {
              "internalType": "uint256",
              "name": "exitFees",
              "type": "uint256"
            },
            {
              "internalType": "uint256",
              "name": "managementFeesDayRate",
              "type": "uint256"
            },
            {
              "internalType": "uint256",
              "name": "managementFeesToTrader",
              "type": "uint256"
            },
            {
              "internalType": "uint256",
              "name": "performanceFeesRate",
              "type": "uint256"
            },
            {
              "internalType": "uint256",
              "name": "performanceFeesToTrader",
              "type": "uint256"
            }
          ],
          "internalType": "struct VLib.FeesProps",
          "name": "_feesProps",
          "type": "tuple"
        },
        {
          "components": [
            {
              "internalType": "uint256",
              "name": "maxAUM",
              "type": "uint256"
            },
            {
              "internalType": "uint256",
              "name": "maxLossSwap",
              "type": "uint256"
            },
            {
              "internalType": "uint256",
              "name": "minAmountDeposit",
              "type": "uint256"
            },
            {
              "internalType": "uint256",
              "name": "maxAmountDeposit",
              "type": "uint256"
            },
            {
              "internalType": "uint256",
              "name": "minFrequencySwap",
              "type": "uint256"
            },
            {
              "internalType": "uint256",
              "name": "minSecurityTime",
              "type": "uint256"
            },
            {
              "internalType": "address",
              "name": "swapAdapter",
              "type": "address"
            }
          ],
          "internalType": "struct VLib.SecurityProps",
          "name": "_securityProps",
          "type": "tuple"
        }
      ],
      "name": "initialize",
      "outputs": [],
      "stateMutability": "nonpayable",
      "type": "function"
    },
    {
      "inputs": [
        {
          "internalType": "uint256[]",
          "name": "_signals",
          "type": "uint256[]"
        },
        {
          "internalType": "bytes[]",
          "name": "_swapTxs",
          "type": "bytes[]"
        }
      ],
      "name": "rebalance",
      "outputs": [],
      "stateMutability": "nonpayable",
      "type": "function"
    },
    {
      "inputs": [
        {
          "internalType": "uint256",
          "name": "_amountIn",
          "type": "uint256"
        },
        {
          "internalType": "bytes[]",
          "name": "_swapTxs",
          "type": "bytes[]"
        }
      ],
      "name": "redeem",
      "outputs": [],
      "stateMutability": "nonpayable",
      "type": "function"
    },
    {
      "inputs": [
        {
          "internalType": "bytes32",
          "name": "role",
          "type": "bytes32"
        },
        {
          "internalType": "address",
          "name": "account",
          "type": "address"
        }
      ],
      "name": "renounceRole",
      "outputs": [],
      "stateMutability": "nonpayable",
      "type": "function"
    },
    {
      "inputs": [
        {
          "internalType": "bytes32",
          "name": "role",
          "type": "bytes32"
        },
        {
          "internalType": "address",
          "name": "account",
          "type": "address"
        }
      ],
      "name": "revokeRole",
      "outputs": [],
      "stateMutability": "nonpayable",
      "type": "function"
    },
    {
      "inputs": [
        {
          "components": [
            {
              "internalType": "bool",
              "name": "paused",
              "type": "bool"
            },
            {
              "internalType": "uint8",
              "name": "verified",
              "type": "uint8"
            },
            {
              "internalType": "string",
              "name": "name",
              "type": "string"
            },
            {
              "internalType": "string",
              "name": "description",
              "type": "string"
            }
          ],
          "internalType": "struct VLib.ConfigProps",
          "name": "_configProps",
          "type": "tuple"
        }
      ],
      "name": "setConfigProps",
      "outputs": [],
      "stateMutability": "nonpayable",
      "type": "function"
    },
    {
      "inputs": [
        {
          "components": [
            {
              "internalType": "address",
              "name": "beneficiary",
              "type": "address"
            },
            {
              "internalType": "uint256",
              "name": "exitFees",
              "type": "uint256"
            },
            {
              "internalType": "uint256",
              "name": "managementFeesDayRate",
              "type": "uint256"
            },
            {
              "internalType": "uint256",
              "name": "managementFeesToTrader",
              "type": "uint256"
            },
            {
              "internalType": "uint256",
              "name": "performanceFeesRate",
              "type": "uint256"
            },
            {
              "internalType": "uint256",
              "name": "performanceFeesToTrader",
              "type": "uint256"
            }
          ],
          "internalType": "struct VLib.FeesProps",
          "name": "_feesProps",
          "type": "tuple"
        }
      ],
      "name": "setFeesProps",
      "outputs": [],
      "stateMutability": "nonpayable",
      "type": "function"
    },
    {
      "inputs": [
        {
          "components": [
            {
              "internalType": "uint256",
              "name": "maxAUM",
              "type": "uint256"
            },
            {
              "internalType": "uint256",
              "name": "maxLossSwap",
              "type": "uint256"
            },
            {
              "internalType": "uint256",
              "name": "minAmountDeposit",
              "type": "uint256"
            },
            {
              "internalType": "uint256",
              "name": "maxAmountDeposit",
              "type": "uint256"
            },
            {
              "internalType": "uint256",
              "name": "minFrequencySwap",
              "type": "uint256"
            },
            {
              "internalType": "uint256",
              "name": "minSecurityTime",
              "type": "uint256"
            },
            {
              "internalType": "address",
              "name": "swapAdapter",
              "type": "address"
            }
          ],
          "internalType": "struct VLib.SecurityProps",
          "name": "_securityProps",
          "type": "tuple"
        }
      ],
      "name": "setSecurityProps",
      "outputs": [],
      "stateMutability": "nonpayable",
      "type": "function"
    },
    {
      "inputs": [
        {
          "internalType": "bytes4",
          "name": "interfaceId",
          "type": "bytes4"
        }
      ],
      "name": "supportsInterface",
      "outputs": [
        {
          "internalType": "bool",
          "name": "",
          "type": "bool"
        }
      ],
      "stateMutability": "view",
      "type": "function"
    },
    {
      "inputs": [
        {
          "internalType": "uint256",
          "name": "",
          "type": "uint256"
        }
      ],
      "name": "tokens",
      "outputs": [
        {
          "internalType": "address",
          "name": "tokenAddress",
          "type": "address"
        },
        {
          "internalType": "address",
          "name": "priceFeedAddress",
          "type": "address"
        },
        {
          "internalType": "uint8",
          "name": "priceFeedPrecision",
          "type": "uint8"
        },
        {
          "internalType": "uint256",
          "name": "denominator",
          "type": "uint256"
        }
      ],
      "stateMutability": "view",
      "type": "function"
    },
    {
      "inputs": [],
      "name": "tokensLength",
      "outputs": [
        {
          "internalType": "uint256",
          "name": "",
          "type": "uint256"
        }
      ],
      "stateMutability": "view",
      "type": "function"
    }
  ],
  "bytecode": "0x608060405234801561001057600080fd5b50615fba806100206000396000f3fe60806040523480156200001157600080fd5b5060043610620001c95760003560e01c8063811fe3ad1162000103578063c3c058f4116200009e578063c3c058f4146200050c578063d547741f1462000523578063d92fc67b146200053a578063e7a619f01462000543578063f0a56fc8146200055a578063f17934231462000571578063f51f3ab21462000588578063ffab8573146200059257600080fd5b8063811fe3ad14620003c8578063830b4980146200044b57806391d1485414620004a65780639ecda5ef14620004bd578063a1ec6d4a14620004d4578063a217fddf14620004de578063aede67ea14620004e7578063bad52597146200050257600080fd5b806336568abe116200017457806336568abe14620002975780634237d77d14620002ae5780634aea3c1c14620002c75780634f64b2be14620002de57806363a560ec14620003295780636522e3f314620003405780636de4badc14620003a55780637dedcf9214620003af57600080fd5b806301ffc9a714620001ce57806316345f1814620001fa57806323224ac81462000220578063248a9ca3146200022a5780632f2ff15d146200025057806333d19e0214620002695780633616c8891462000280575b600080fd5b620001e5620001df3660046200428d565b620005a9565b60405190151581526020015b60405180910390f35b620002116200020b3660046200403a565b620005e1565b604051908152602001620001f1565b6200021162000665565b620002116200023b36600462004242565b60009081526065602052604090206001015490565b62000267620002613660046200425b565b62000791565b005b620002676200027a36600462004181565b620007c0565b6200026762000291366004620044a3565b620009e9565b62000267620002a83660046200425b565b62000fb1565b620002b862001033565b604051620001f1919062004817565b62000267620002d8366004620042b7565b620011b7565b620002f5620002ef36600462004242565b6200122b565b604080516001600160a01b03958616815294909316602085015260ff909116918301919091526060820152608001620001f1565b6200021160008051602062005f4583398151915281565b6200034a62001278565b604051620001f19190815181526020808301519082015260408083015190820152606080830151908201526080808301519082015260a0808301519082015260c0918201516001600160a01b03169181019190915260e00190565b6200026762001310565b620003b9620014d3565b604051620001f1919062004876565b6200041a6040805160608101825260008082526020820181905291810191909152506040805160608101825260cb546001600160a01b03908116825260cc54602083015260cd54169181019190915290565b6040805182516001600160a01b039081168252602080850151908301529282015190921690820152606001620001f1565b6200045562001589565b604051620001f1919081516001600160a01b031681526020808301519082015260408083015190820152606080830151908201526080808301519082015260a0918201519181019190915260c00190565b620001e5620004b73660046200425b565b62001612565b62000267620004ce366004620043fe565b6200163d565b62000267620016cf565b62000211600081565b620004f162001739565b604051620001f19392919062004702565b6200021162001b58565b620002676200051d366004620041b7565b62001c44565b62000267620005343660046200425b565b62001dc2565b60c95462000211565b6200026762000554366004620040bf565b62001dec565b6200021160008051602062005f6583398151915281565b620002676200058236600462004377565b62002514565b62000267620026e3565b62000267620005a3366004620044a3565b620028b8565b60006001600160e01b03198216637965db0b60e01b1480620005db57506301ffc9a760e01b6001600160e01b03198316145b92915050565b600080826001600160a01b031663feaf968c6040518163ffffffff1660e01b815260040160a06040518083038186803b1580156200061e57600080fd5b505afa15801562000633573d6000803e3d6000fd5b505050506040513d601f19601f82011682018060405250810190620006599190620044e3565b50919695505050505050565b60008060cb60020160009054906101000a90046001600160a01b03166001600160a01b03166318160ddd6040518163ffffffff1660e01b815260040160206040518083038186803b158015620006ba57600080fd5b505afa158015620006cf573d6000803e3d6000fd5b505050506040513d601f19601f82011682018060405250810190620006f591906200448a565b905060006200070362001739565b60ce5490935091505080821115620007875760d954600090612710906200072f6305f5e100876200497e565b6200073b858762004ac9565b62000747919062004aa7565b62000753919062004aa7565b6200075f91906200497e565b905082620007726305f5e1008362004aa7565b6200077e91906200497e565b94505050505090565b6000935050505090565b600082815260656020526040902060010154620007af813362002e8b565b620007bb838362002efa565b505050565b6000620007ce813362002e8b565b60cb546040805163c31c9c0760e01b815290516000926001600160a01b03169163c31c9c07916004808301926020929190829003018186803b1580156200081457600080fd5b505afa15801562000829573d6000803e3d6000fd5b505050506040513d601f19601f820116820180604052508101906200084f919062004059565b9050600060c9805480602002602001604051908101604052809291908181526020016000905b82821015620008df576000848152602090819020604080516080810182526003860290920180546001600160a01b03908116845260018083015491821685870152600160a01b90910460ff1692840192909252600201546060830152908352909201910162000875565b50505050905060005b8151811015620009e2578181815181106200091357634e487b7160e01b600052603260045260246000fd5b6020026020010151600001516001600160a01b031663095ea7b3848784815181106200094f57634e487b7160e01b600052603260045260246000fd5b60200260200101516040518363ffffffff1660e01b815260040162000976929190620046c8565b602060405180830381600087803b1580156200099157600080fd5b505af1158015620009a6573d6000803e3d6000fd5b505050506040513d601f19601f82011682018060405250810190620009cc919062004223565b5080620009d98162004b63565b915050620008e8565b5050505050565b60d25460ff161562000a0e576040516313d0ff5960e31b815260040160405180910390fd5b6002609754141562000a3d5760405162461bcd60e51b815260040162000a3490620047e0565b60405180910390fd5b60026097558262000a615760405163040736c560e31b815260040160405180910390fd5b60e05433600090815260ca6020526040812054909162000a819162004963565b905042811062000aa8576040516353d5558560e01b81526004810182905260240162000a34565b60cd54604080516318160ddd60e01b815290516001600160a01b039092169160009183916318160ddd91600480820192602092909190829003018186803b15801562000af357600080fd5b505afa15801562000b08573d6000803e3d6000fd5b505050506040513d601f19601f8201168201806040525081019062000b2e91906200448a565b9050600062000b3c62001739565b9250505060006305f5e100828962000b55919062004aa7565b62000b6191906200497e565b60405163079cc67960e41b81529091506001600160a01b038516906379cc67909062000b949033908c90600401620046c8565b600060405180830381600087803b15801562000baf57600080fd5b505af115801562000bc4573d6000803e3d6000fd5b50505050600060c960008154811062000bed57634e487b7160e01b600052603260045260246000fd5b6000918252602080832060408051608081018252600390940290910180546001600160a01b0390811680865260018301549182169486019490945260ff600160a01b9091041684830152600201546060840152516370a0823160e01b8152919350906370a082319062000c659030906004016200467e565b60206040518083038186803b15801562000c7e57600080fd5b505afa15801562000c93573d6000803e3d6000fd5b505050506040513d601f19601f8201168201806040525081019062000cb991906200448a565b905060008562000cca8c8462004aa7565b62000cd691906200497e565b905062000ce48a8a62002f84565b82516040516370a0823160e01b815283916001600160a01b0316906370a082319062000d159030906004016200467e565b60206040518083038186803b15801562000d2e57600080fd5b505afa15801562000d43573d6000803e3d6000fd5b505050506040513d601f19601f8201168201806040525081019062000d6991906200448a565b62000d75919062004ac9565b62000d81908262004963565b9050600060cb60000160009054906101000a90046001600160a01b03166001600160a01b03166305a9e0736040518163ffffffff1660e01b815260040160206040518083038186803b15801562000dd757600080fd5b505afa15801562000dec573d6000803e3d6000fd5b505050506040513d601f19601f8201168201806040525081019062000e12919062004059565b6001600160a01b031663c414b089336040518263ffffffff1660e01b815260040162000e3f91906200467e565b60206040518083038186803b15801562000e5857600080fd5b505afa15801562000e6d573d6000803e3d6000fd5b505050506040513d601f19601f8201168201806040525081019062000e9391906200448a565b9050600061271062000ea6838262004ac9565b60d65462000eb5919062004aa7565b62000ec191906200497e565b905061271062000ed2828562004aa7565b62000ede91906200497e565b62000eea908462004ac9565b92506000856060015162000f028760200151620005e1565b62000f0e908662004aa7565b62000f1a91906200497e565b90508681111562000f49576040516354ba98a560e11b8152600481018290526024810188905260440162000a34565b855162000f61906001600160a01b03163386620034ef565b604080518f815242602082015233917fe5b754fb1abb7f01b499791d0b820ae3b6af3424ac1c59768edb53f4ec31a92991015b60405180910390a250506001609755505050505050505050505050565b6001600160a01b0381163314620010235760405162461bcd60e51b815260206004820152602f60248201527f416363657373436f6e74726f6c3a2063616e206f6e6c792072656e6f756e636560448201526e103937b632b9903337b91039b2b63360891b606482015260840162000a34565b6200102f828262003549565b5050565b60408051608081018252600080825260208201526060918101829052818101919091526040805160808101825260d2805460ff8082161515845261010090910416602083015260d380549293919291840191620010909062004b2c565b80601f0160208091040260200160405190810160405280929190818152602001828054620010be9062004b2c565b80156200110f5780601f10620010e3576101008083540402835291602001916200110f565b820191906000526020600020905b815481529060010190602001808311620010f157829003601f168201915b505050505081526020016002820180546200112a9062004b2c565b80601f0160208091040260200160405190810160405280929190818152602001828054620011589062004b2c565b8015620011a95780601f106200117d57610100808354040283529160200191620011a9565b820191906000526020600020905b8154815290600101906020018083116200118b57829003601f168201915b505050505081525050905090565b6000620011c5813362002e8b565b815160d2805460208086015161ffff1990921693151561ff0019169390931761010060ff909216919091021781556040840151805185936200120d9260d39291019062003d58565b5060608201518051620009e291600284019160209091019062003d58565b60c981815481106200123c57600080fd5b60009182526020909120600390910201805460018201546002909201546001600160a01b03918216935090821691600160a01b900460ff169084565b620012c26040518060e0016040528060008152602001600081526020016000815260200160008152602001600081526020016000815260200160006001600160a01b031681525090565b506040805160e0808201835260db54825260dc54602083015260dd549282019290925260de54606082015260df546080820152905460a082015260e1546001600160a01b031660c082015290565b60d25460ff161562001335576040516313d0ff5960e31b815260040160405180910390fd5b60008051602062005f4583398151915262001351813362002e8b565b60006200135d62001b58565b90508062001369575050565b60d854600090612710906200137f908462004aa7565b6200138b91906200497e565b905060006200139b828462004ac9565b90508015620014165760cd546001600160a01b03166340c10f19620013c16000620035b3565b836040518363ffffffff1660e01b8152600401620013e1929190620046c8565b600060405180830381600087803b158015620013fc57600080fd5b505af115801562001411573d6000803e3d6000fd5b505050505b81156200148a5760cd5460d5546040516340c10f1960e01b81526001600160a01b03928316926340c10f199262001455929116908690600401620046c8565b600060405180830381600087803b1580156200147057600080fd5b505af115801562001485573d6000803e3d6000fd5b505050505b4260d1556040517fc5d64fc761f9b3655032564333e112575ff87c7d50ab506126d6b5d58753603890620014c490339084908690620046e1565b60405180910390a15050505b50565b620014ff6040518060800160405280600081526020016060815260200160008152602001600081525090565b60ce60405180608001604052908160008201548152602001600182018054806020026020016040519081016040528092919081815260200182805480156200156757602002820191906000526020600020905b81548152602001906001019080831162001552575b5050505050815260200160028201548152602001600382015481525050905090565b620015cc6040518060c0016040528060006001600160a01b0316815260200160008152602001600081526020016000815260200160008152602001600081525090565b506040805160c08101825260d5546001600160a01b0316815260d654602082015260d7549181019190915260d854606082015260d954608082015260da5460a082015290565b60009182526065602090815260408084206001600160a01b0393909316845291905290205460ff1690565b60006200164b813362002e8b565b6109c4826020015111156200167c57816020015160405163031dc50960e61b815260040162000a3491815260200190565b50805160db55602081015160dc55604081015160dd55606081015160de55608081015160df5560a081015160e05560c0015160e180546001600160a01b0319166001600160a01b03909216919091179055565b6000620016dd813362002e8b565b60cd5460408051630563e39b60e51b815290516001600160a01b039092169163ac7c73609160048082019260009290919082900301818387803b1580156200172457600080fd5b505af1158015620009e2573d6000803e3d6000fd5b6060600080600060c9805480602002602001604051908101604052809291908181526020016000905b82821015620017cc576000848152602090819020604080516080810182526003860290920180546001600160a01b03908116845260018083015491821685870152600160a01b90910460ff1692840192909252600201546060830152908352909201910162001762565b50508251929350829150506001600160401b03811115620017fd57634e487b7160e01b600052604160045260246000fd5b60405190808252806020026020018201604052801562001827578160200160208202803683370190505b50945060005b818110156200197f5760008382815181106200185957634e487b7160e01b600052603260045260246000fd5b60200260200101519050600081600001516001600160a01b03166370a08231306040518263ffffffff1660e01b81526004016200189791906200467e565b60206040518083038186803b158015620018b057600080fd5b505afa158015620018c5573d6000803e3d6000fd5b505050506040513d601f19601f82011682018060405250810190620018eb91906200448a565b905080620018fb5750506200196a565b60008260600151620019118460200151620005e1565b6200191d908462004aa7565b6200192991906200497e565b9050808985815181106200194d57634e487b7160e01b600052603260045260246000fd5b602090810291909101015262001964818962004963565b97505050505b80620019768162004b63565b9150506200182d565b5060005b8181101562001a9d5784620019f35760cf805482908110620019b557634e487b7160e01b600052603260045260246000fd5b9060005260206000200154868281518110620019e157634e487b7160e01b600052603260045260246000fd5b60200260200101818152505062001a88565b6305f5e100612710866305f5e10089858151811062001a2257634e487b7160e01b600052603260045260246000fd5b602002602001015162001a36919062004aa7565b62001a4291906200497e565b62001a4e919062004aa7565b62001a5a91906200497e565b86828151811062001a7b57634e487b7160e01b600052603260045260246000fd5b6020026020010181815250505b8062001a948162004b63565b91505062001983565b5060cd54604080516318160ddd60e01b815290516000926001600160a01b0316916318160ddd916004808301926020929190829003018186803b15801562001ae457600080fd5b505afa15801562001af9573d6000803e3d6000fd5b505050506040513d601f19601f8201168201806040525081019062001b1f91906200448a565b9050801562001b4b578062001b396305f5e1008762004aa7565b62001b4591906200497e565b62001b4e565b60005b9350505050909192565b6000806201518060ce600301544262001b72919062004ac9565b62001b7e91906200497e565b90508062001b8e57600091505090565b60cd54604080516318160ddd60e01b815290516000926001600160a01b0316916318160ddd916004808301926020929190829003018186803b15801562001bd457600080fd5b505afa15801562001be9573d6000803e3d6000fd5b505050506040513d601f19601f8201168201806040525081019062001c0f91906200448a565b60d7549091506127109062001c25838562004aa7565b62001c31919062004aa7565b62001c3d91906200497e565b9250505090565b60d25460ff161562001c69576040516313d0ff5960e31b815260040160405180910390fd5b6002609754141562001c8f5760405162461bcd60e51b815260040162000a3490620047e0565b600260975560008051602062005f6583398151915262001cb0813362002e8b565b60df5460d05460009162001cc49162004963565b905042811062001ceb576040516353d5558560e01b81526004810182905260240162000a34565b62001cf7848462002f84565b60005b855181101562001d735785818151811062001d2557634e487b7160e01b600052603260045260246000fd5b602002602001015160ce600101828154811062001d5257634e487b7160e01b600052603260045260246000fd5b6000918252602090912001558062001d6a8162004b63565b91505062001cfa565b504260d08190556040517fe2d886c41ff17c38bad4836a83206cf6cf0be0a42a60d8bb56ecc59062366f809162001dae913391899162004692565b60405180910390a150506001609755505050565b60008281526065602052604090206001015462001de0813362002e8b565b620007bb838362003549565b600054610100900460ff1662001e095760005460ff161562001e0d565b303b155b62001e725760405162461bcd60e51b815260206004820152602e60248201527f496e697469616c697a61626c653a20636f6e747261637420697320616c72656160448201526d191e481a5b9a5d1a585b1a5e995960921b606482015260840162000a34565b600054610100900460ff1615801562001e95576000805461ffff19166101011790555b62001e9f62003634565b62001ea96200366a565b60cb80546001600160a01b0319163390811790915562001ecc90600090620036b2565b62001ef860008051602062005f6583398151915262001ef260a08701608088016200403a565b620036b2565b62001f1e60008051602062005f4583398151915262001ef260a08701608088016200403a565b62001fbf60008051602062005f4583398151915260cb60000160009054906101000a90046001600160a01b03166001600160a01b0316634bdaeac16040518163ffffffff1660e01b815260040160206040518083038186803b15801562001f8457600080fd5b505afa15801562001f99573d6000803e3d6000fd5b505050506040513d601f19601f8201168201806040525081019062001ef2919062004059565b60cb54604080516306ec4be960e41b815290516000926001600160a01b031691636ec4be90916004808301926020929190829003018186803b1580156200200557600080fd5b505afa1580156200201a573d6000803e3d6000fd5b505050506040513d601f19601f8201168201806040525081019062002040919062004059565b905060005b8681101562002403576040805160808101825260008082526020820181905291810182905260608101829052908989848181106200209357634e487b7160e01b600052603260045260246000fd5b9050608002016020016020810190620020ad91906200403a565b6001600160a01b031663313ce5676040518163ffffffff1660e01b815260040160206040518083038186803b158015620020e657600080fd5b505afa158015620020fb573d6000803e3d6000fd5b505050506040513d601f19601f820116820180604052508101906200212191906200452b565b90508060ff166008146200214857604051632bdd753960e01b815260040160405180910390fd5b8989848181106200216957634e487b7160e01b600052603260045260246000fd5b6200218192602060809092020190810191506200403a565b6001600160a01b031663313ce5676040518163ffffffff1660e01b815260040160206040518083038186803b158015620021ba57600080fd5b505afa158015620021cf573d6000803e3d6000fd5b505050506040513d601f19601f82011682018060405250810190620021f591906200452b565b6200220290600a620049e8565b60608301528989848181106200222857634e487b7160e01b600052603260045260246000fd5b6200224092602060809092020190810191506200403a565b6001600160a01b031682528989848181106200226c57634e487b7160e01b600052603260045260246000fd5b90506080020160200160208101906200228691906200403a565b6001600160a01b03166020830152620022e6846000198c8c87818110620022bd57634e487b7160e01b600052603260045260246000fd5b620022d592602060809092020190810191506200403a565b6001600160a01b03169190620036be565b60ff8082166040840190815260c98054600181018255600091909152845160039091027f66be4f155c5ef2ebd3772b228f2f00681e4ed5826cdb3b1943cc11ad15ad1d28810180546001600160a01b039384166001600160a01b031990911617905560208601517f66be4f155c5ef2ebd3772b228f2f00681e4ed5826cdb3b1943cc11ad15ad1d29820180549451909516600160a01b026001600160a81b03199094169216919091179190911790915560608301517f66be4f155c5ef2ebd3772b228f2f00681e4ed5826cdb3b1943cc11ad15ad1d2a9091015560cf8315620023d1576000620023d5565b6127105b8154600181018355600092835260209092209091015550819050620023fa8162004b63565b91505062002045565b50620024136040860186620048be565b620024226060880188620048be565b6008604051620024329062003de7565b6200244295949392919062004754565b604051809103906000f0801580156200245f573d6000803e3d6000fd5b5060cd80546001600160a01b0319166001600160a01b03929092169190911790554360cc556305f5e10060ce554260d081905560d155620024a18580620048be565b620024af9160d39162003df5565b50620024bf6020860186620048be565b620024cd9160d49162003df5565b50620024e3620005823686900386018662004377565b620024f8620004ce36859003850185620043fe565b5080156200250c576000805461ff00191690555b505050505050565b600062002522813362002e8b565b6200252f60003362001612565b6200257d5760405162461bcd60e51b815260206004820152601b60248201527f446f65736e277420686176652048617276657374657220526f6c650000000000604482015260640162000a34565b603282602001511080156200259757506103e88260200151115b15620025bf57816020015160405163031dc50960e61b815260040162000a3491815260200190565b611d4c82608001511115620025f057816080015160405163031dc50960e61b815260040162000a3491815260200190565b6064826040015111156200262057816040015160405163031dc50960e61b815260040162000a3491815260200190565b611388826060015111156200265157816060015160405163031dc50960e61b815260040162000a3491815260200190565b6113888260a00151111562002682578160a0015160405163031dc50960e61b815260040162000a3491815260200190565b604082015160d75410801562002697574260d1555b5050805160d580546001600160a01b0319166001600160a01b03909216919091179055602081015160d655604081015160d755606081015160d855608081015160d95560a0015160da55565b60d25460ff161562002708576040516313d0ff5960e31b815260040160405180910390fd5b60008051602062005f4583398151915262002724813362002e8b565b60006200273062000665565b9050806200273c575050565b60da546000906127109062002752908462004aa7565b6200275e91906200497e565b905060006200276e828462004ac9565b90508015620027e95760cd546001600160a01b03166340c10f19620027946001620035b3565b836040518363ffffffff1660e01b8152600401620027b4929190620046c8565b600060405180830381600087803b158015620027cf57600080fd5b505af1158015620027e4573d6000803e3d6000fd5b505050505b81156200285d5760cd5460d5546040516340c10f1960e01b81526001600160a01b03928316926340c10f199262002828929116908690600401620046c8565b600060405180830381600087803b1580156200284357600080fd5b505af115801562002858573d6000803e3d6000fd5b505050505b60006200286962001739565b60ce8190556040519093507f183ca8edb5c44e45a247e0dd7736571c7f80df25d575966949426eaeddcf33009250620028a99150339085908790620046e1565b60405180910390a15050505050565b60d25460ff1615620028dd576040516313d0ff5960e31b815260040160405180910390fd5b60026097541415620029035760405162461bcd60e51b815260040162000a3490620047e0565b600260975560006200291462001739565b50915050600060c96000815481106200293d57634e487b7160e01b600052603260045260246000fd5b6000918252602080832060408051608081018252600390940290910180546001600160a01b03908116855260018201548082168686015260ff600160a01b9091041685840152600290910154606085015260cd5482516318160ddd60e01b8152925194965016926318160ddd92600480840193919291829003018186803b158015620029c857600080fd5b505afa158015620029dd573d6000803e3d6000fd5b505050506040513d601f19601f8201168201806040525081019062002a0391906200448a565b9050600060cb60000160009054906101000a90046001600160a01b03166001600160a01b031663fdcb60686040518163ffffffff1660e01b815260040160206040518083038186803b15801562002a5957600080fd5b505afa15801562002a6e573d6000803e3d6000fd5b505050506040513d601f19601f8201168201806040525081019062002a94919062004059565b905060008262002aa657600062002b44565b60cd546040516370a0823160e01b815284916001600160a01b0316906370a082319062002ad89033906004016200467e565b60206040518083038186803b15801562002af157600080fd5b505afa15801562002b06573d6000803e3d6000fd5b505050506040513d601f19601f8201168201806040525081019062002b2c91906200448a565b62002b38908762004aa7565b62002b4491906200497e565b60e05433600090815260ca60205260408120549293509162002b67919062004963565b9050600062002b7a8660200151620005e1565b905060008660600151828c62002b91919062004aa7565b62002b9d91906200497e565b60dd5490915081101562002bc857604051630266752760e51b81526004810182905260240162000a34565b60de5462002bd7828662004963565b111562002c075762002bea818562004963565b6040516395faf97b60e01b815260040162000a3491815260200190565b42831062002c2c576040516353d5558560e01b81526004810184905260240162000a34565b60db5462002c3b828a62004963565b1062002c6a5762002c4d818962004963565b604051639f877d8760e01b815260040162000a3491815260200190565b60405163a10cda9960e01b81523060048201523360248201526001600160a01b0386169063a10cda999060440160206040518083038186803b15801562002cb057600080fd5b505afa15801562002cc5573d6000803e3d6000fd5b505050506040513d601f19601f8201168201806040525081019062002ceb919062004223565b62002d0d573360405163472511eb60e11b815260040162000a3491906200467e565b865162002d26906001600160a01b031633308e620037db565b62002d328a8a62002f84565b600062002d3e62001739565b5091506000905062002d518a8362004ac9565b90508281111562002d8057604051636963bca560e01b8152600481018490526024810182905260440162000a34565b60008862002d9057508062002dac565b8a62002d9d8a8462004aa7565b62002da991906200497e565b90505b6000811162002dce5760405163220328c760e11b815260040160405180910390fd5b33600081815260ca60205260409081902042905560cd5490516340c10f1960e01b81526001600160a01b03909116916340c10f199162002e1491908590600401620046c8565b600060405180830381600087803b15801562002e2f57600080fd5b505af115801562002e44573d6000803e3d6000fd5b5050604080518581526020810185905242918101919091523392507f36af321ec8d3c75236829c5317affd40ddb308863a1236d2d277a4025cccee1e915060600162000f94565b62002e97828262001612565b6200102f5762002eb2816001600160a01b0316601462003815565b62002ebf83602062003815565b60405160200162002ed29291906200460b565b60408051601f198184030181529082905262461bcd60e51b825262000a34916004016200473f565b62002f06828262001612565b6200102f5760008281526065602090815260408083206001600160a01b03851684529091529020805460ff1916600117905562002f403390565b6001600160a01b0316816001600160a01b0316837f2f8788117e7eff1d82e926ec794901d17c78024a50270940304540a733656f0d60405160405180910390a45050565b60cb546040805163c31c9c0760e01b815290516000926001600160a01b03169163c31c9c07916004808301926020929190829003018186803b15801562002fca57600080fd5b505afa15801562002fdf573d6000803e3d6000fd5b505050506040513d601f19601f8201168201806040525081019062003005919062004059565b905060005b82811015620034e95760e154600090819081906001600160a01b031663ef4592fb8888878181106200304c57634e487b7160e01b600052603260045260246000fd5b9050602002810190620030609190620048be565b6040518363ffffffff1660e01b81526004016200307f92919062004729565b60606040518083038186803b1580156200309857600080fd5b505afa158015620030ad573d6000803e3d6000fd5b505050506040513d601f19601f82011682018060405250810190620030d3919062004078565b925092509250600080620030e78562003a11565b91509150816200310e57846040516340d1d8df60e11b815260040162000a3491906200467e565b600060c982815481106200313257634e487b7160e01b600052603260045260246000fd5b60009182526020918290206040805160808101825260039390930290910180546001600160a01b039081168452600182015490811694840194909452600160a01b90930460ff169082015260029091015460608201529050620031958562003a11565b909350915082620031bd57846040516340d1d8df60e11b815260040162000a3491906200467e565b600060c98381548110620031e157634e487b7160e01b600052603260045260246000fd5b6000918252602080832060408051608081018252600390940290910180546001600160a01b0390811680865260018301549182169486019490945260ff600160a01b9091041684830152600201546060840152516370a0823160e01b8152919350906370a0823190620032599030906004016200467e565b60206040518083038186803b1580156200327257600080fd5b505afa15801562003287573d6000803e3d6000fd5b505050506040513d601f19601f82011682018060405250810190620032ad91906200448a565b90506000808b6001600160a01b03168e8e8d818110620032dd57634e487b7160e01b600052603260045260246000fd5b9050602002810190620032f19190620048be565b60405162003301929190620045dd565b6000604051808303816000865af19150503d806000811462003340576040519150601f19603f3d011682016040523d82523d6000602084013e62003345565b606091505b5091509150816200336d578060405163658874d560e01b815260040162000a3491906200473f565b60008385600001516001600160a01b03166370a08231306040518263ffffffff1660e01b8152600401620033a291906200467e565b60206040518083038186803b158015620033bb57600080fd5b505afa158015620033d0573d6000803e3d6000fd5b505050506040513d601f19601f82011682018060405250810190620033f691906200448a565b62003402919062004ac9565b9050600086606001516200341a8860200151620005e1565b62003426908c62004aa7565b6200343291906200497e565b9050600086606001516200344a8860200151620005e1565b62003456908562004aa7565b6200346291906200497e565b9050600061271060db600101546127106200347e919062004ac9565b6200348a908562004aa7565b6200349691906200497e565b905080821015620034c557604051636963bca560e01b8152600481018490526024810183905260440162000a34565b50505050505050505050505050508080620034e09062004b63565b9150506200300a565b50505050565b620007bb8363a9059cbb60e01b848460405160240162003511929190620046c8565b60408051601f198184030181529190526020810180516001600160e01b03166001600160e01b03199093169290921790915262003a9b565b62003555828262001612565b156200102f5760008281526065602090815260408083206001600160a01b0385168085529252808320805460ff1916905551339285917ff6391f5c32d9c69d2a47ea670b442974b53935d1edc7fd64eb21e047a839171b9190a45050565b60cb54604051630e9f05fb60e21b8152600481018390526000916001600160a01b031690633a7c17ec9060240160206040518083038186803b158015620035f957600080fd5b505afa1580156200360e573d6000803e3d6000fd5b505050506040513d601f19601f82011682018060405250810190620005db919062004059565b600054610100900460ff166200365e5760405162461bcd60e51b815260040162000a349062004795565b6200366862003b74565b565b600054610100900460ff16620036945760405162461bcd60e51b815260040162000a349062004795565b6200369e62003ba5565b620036a862003ba5565b6200366862003ba5565b6200102f828262002efa565b8015806200374c5750604051636eb1769f60e11b81523060048201526001600160a01b03838116602483015284169063dd62ed3e9060440160206040518083038186803b1580156200370f57600080fd5b505afa15801562003724573d6000803e3d6000fd5b505050506040513d601f19601f820116820180604052508101906200374a91906200448a565b155b620037b95760405162461bcd60e51b815260206004820152603660248201527f5361666545524332303a20617070726f76652066726f6d206e6f6e2d7a65726f60448201527520746f206e6f6e2d7a65726f20616c6c6f77616e636560501b606482015260840162000a34565b620007bb8363095ea7b360e01b848460405160240162003511929190620046c8565b6040516001600160a01b0380851660248301528316604482015260648101829052620034e99085906323b872dd60e01b9060840162003511565b606060006200382683600262004aa7565b6200383390600262004963565b6001600160401b038111156200385957634e487b7160e01b600052604160045260246000fd5b6040519080825280601f01601f19166020018201604052801562003884576020820181803683370190505b509050600360fc1b81600081518110620038ae57634e487b7160e01b600052603260045260246000fd5b60200101906001600160f81b031916908160001a905350600f60fb1b81600181518110620038ec57634e487b7160e01b600052603260045260246000fd5b60200101906001600160f81b031916908160001a90535060006200391284600262004aa7565b6200391f90600162004963565b90505b6001811115620039b9576f181899199a1a9b1b9c1cb0b131b232b360811b85600f16601081106200396357634e487b7160e01b600052603260045260246000fd5b1a60f81b8282815181106200398857634e487b7160e01b600052603260045260246000fd5b60200101906001600160f81b031916908160001a90535060049490941c93620039b18162004b12565b905062003922565b50831562003a0a5760405162461bcd60e51b815260206004820181905260248201527f537472696e67733a20686578206c656e67746820696e73756666696369656e74604482015260640162000a34565b9392505050565b60008060005b60c95481101562003a8f57836001600160a01b031660c9828154811062003a4e57634e487b7160e01b600052603260045260246000fd5b60009182526020909120600390910201546001600160a01b0316141562003a7a57600194909350915050565b8062003a868162004b63565b91505062003a17565b50600093849350915050565b600062003af2826040518060400160405280602081526020017f5361666545524332303a206c6f772d6c6576656c2063616c6c206661696c6564815250856001600160a01b031662003bcf9092919063ffffffff16565b805190915015620007bb578080602001905181019062003b13919062004223565b620007bb5760405162461bcd60e51b815260206004820152602a60248201527f5361666545524332303a204552433230206f7065726174696f6e20646964206e6044820152691bdd081cdd58d8d9595960b21b606482015260840162000a34565b600054610100900460ff1662003b9e5760405162461bcd60e51b815260040162000a349062004795565b6001609755565b600054610100900460ff16620036685760405162461bcd60e51b815260040162000a349062004795565b606062003be0848460008562003be8565b949350505050565b60608247101562003c4b5760405162461bcd60e51b815260206004820152602660248201527f416464726573733a20696e73756666696369656e742062616c616e636520666f6044820152651c8818d85b1b60d21b606482015260840162000a34565b843b62003c9b5760405162461bcd60e51b815260206004820152601d60248201527f416464726573733a2063616c6c20746f206e6f6e2d636f6e7472616374000000604482015260640162000a34565b600080866001600160a01b0316858760405162003cb99190620045ed565b60006040518083038185875af1925050503d806000811462003cf8576040519150601f19603f3d011682016040523d82523d6000602084013e62003cfd565b606091505b509150915062003d0f82828662003d1a565b979650505050505050565b6060831562003d2b57508162003a0a565b82511562003d3c5782518084602001fd5b8160405162461bcd60e51b815260040162000a3491906200473f565b82805462003d669062004b2c565b90600052602060002090601f01602090048101928262003d8a576000855562003dd5565b82601f1062003da557805160ff191683800117855562003dd5565b8280016001018555821562003dd5579182015b8281111562003dd557825182559160200191906001019062003db8565b5062003de392915062003e72565b5090565b6113628062004be383390190565b82805462003e039062004b2c565b90600052602060002090601f01602090048101928262003e27576000855562003dd5565b82601f1062003e425782800160ff1982351617855562003dd5565b8280016001018555821562003dd5579182015b8281111562003dd557823582559160200191906001019062003e55565b5b8082111562003de3576000815560010162003e73565b803562003e968162004bad565b919050565b60008083601f84011262003ead578182fd5b5081356001600160401b0381111562003ec4578182fd5b6020830191508360208260051b850101111562003ee057600080fd5b9250929050565b600082601f83011262003ef8578081fd5b813560206001600160401b0382111562003f165762003f1662004b97565b8160051b62003f2782820162004930565b83815282810190868401838801850189101562003f42578687fd5b8693505b8584101562003f6657803583526001939093019291840191840162003f46565b50979650505050505050565b600082601f83011262003f83578081fd5b81356001600160401b0381111562003f9f5762003f9f62004b97565b62003fb4601f8201601f191660200162004930565b81815284602083860101111562003fc9578283fd5b816020850160208301379081016020019190915292915050565b600060a0828403121562003ff5578081fd5b50919050565b600060c0828403121562003ff5578081fd5b600060e0828403121562003ff5578081fd5b805169ffffffffffffffffffff8116811462003e9657600080fd5b6000602082840312156200404c578081fd5b813562003a0a8162004bad565b6000602082840312156200406b578081fd5b815162003a0a8162004bad565b6000806000606084860312156200408d578182fd5b83516200409a8162004bad565b6020850151909350620040ad8162004bad565b80925050604084015190509250925092565b60008060008060006101e08688031215620040d8578283fd5b85356001600160401b0380821115620040ef578485fd5b818801915088601f83011262004103578485fd5b81358181111562004112578586fd5b8960208260071b850101111562004127578586fd5b60209283019750955090870135908082111562004142578485fd5b50620041518882890162003fe3565b93505062004163876040880162003ffb565b9150620041758761010088016200400d565b90509295509295909350565b60006020828403121562004193578081fd5b81356001600160401b03811115620041a9578182fd5b62003be08482850162003ee7565b600080600060408486031215620041cc578081fd5b83356001600160401b0380821115620041e3578283fd5b620041f18783880162003ee7565b9450602086013591508082111562004207578283fd5b50620042168682870162003e9b565b9497909650939450505050565b60006020828403121562004235578081fd5b815162003a0a8162004bc3565b60006020828403121562004254578081fd5b5035919050565b600080604083850312156200426e578182fd5b823591506020830135620042828162004bad565b809150509250929050565b6000602082840312156200429f578081fd5b81356001600160e01b03198116811462003a0a578182fd5b600060208284031215620042c9578081fd5b81356001600160401b0380821115620042e0578283fd5b9083019060808286031215620042f4578283fd5b620042fe62004905565b82356200430b8162004bc3565b815260208301356200431d8162004bd2565b602082015260408301358281111562004334578485fd5b620043428782860162003f72565b6040830152506060830135828111156200435a578485fd5b620043688782860162003f72565b60608301525095945050505050565b600060c0828403121562004389578081fd5b60405160c081018181106001600160401b0382111715620043ae57620043ae62004b97565b6040528235620043be8162004bad565b808252506020830135602082015260408301356040820152606083013560608201526080830135608082015260a083013560a08201528091505092915050565b600060e0828403121562004410578081fd5b60405160e081018181106001600160401b038211171562004435576200443562004b97565b8060405250823581526020830135602082015260408301356040820152606083013560608201526080830135608082015260a083013560a08201526200447e60c0840162003e89565b60c08201529392505050565b6000602082840312156200449c578081fd5b5051919050565b600080600060408486031215620044b8578081fd5b8335925060208401356001600160401b03811115620044d5578182fd5b620042168682870162003e9b565b600080600080600060a08688031215620044fb578283fd5b62004506866200401f565b945060208601519350604086015192506060860151915062004175608087016200401f565b6000602082840312156200453d578081fd5b815162003a0a8162004bd2565b6000815180845260208085019450808401835b838110156200457b578151875295820195908201906001016200455d565b509495945050505050565b81835281816020850137506000828201602090810191909152601f909101601f19169091010190565b60008151808452620045c981602086016020860162004ae3565b601f01601f19169290920160200192915050565b8183823760009101908152919050565b600082516200460181846020870162004ae3565b9190910192915050565b76020b1b1b2b9b9a1b7b73a3937b61d1030b1b1b7bab73a1604d1b8152600083516200463f81601785016020880162004ae3565b7001034b99036b4b9b9b4b733903937b6329607d1b60179184019182015283516200467281602884016020880162004ae3565b01602801949350505050565b6001600160a01b0391909116815260200190565b6001600160a01b0384168152606060208201819052600090620046b8908301856200454a565b9050826040830152949350505050565b6001600160a01b03929092168252602082015260400190565b6001600160a01b039390931683526020830191909152604082015260600190565b6060815260006200471760608301866200454a565b60208301949094525060400152919050565b60208152600062003be060208301848662004586565b60208152600062003a0a6020830184620045af565b6060815260006200476a60608301878962004586565b82810360208401526200477f81868862004586565b91505060ff831660408301529695505050505050565b6020808252602b908201527f496e697469616c697a61626c653a20636f6e7472616374206973206e6f74206960408201526a6e697469616c697a696e6760a81b606082015260800190565b6020808252601f908201527f5265656e7472616e637947756172643a207265656e7472616e742063616c6c00604082015260600190565b6020815281511515602082015260ff602083015116604082015260006040830151608060608401526200484e60a0840182620045af565b90506060840151601f198483030160808501526200486d8282620045af565b95945050505050565b602081528151602082015260006020830151608060408401526200489e60a08401826200454a565b905060408401516060840152606084015160808401528091505092915050565b6000808335601e19843603018112620048d5578283fd5b8301803591506001600160401b03821115620048ef578283fd5b60200191503681900382131562003ee057600080fd5b604051608081016001600160401b03811182821017156200492a576200492a62004b97565b60405290565b604051601f8201601f191681016001600160401b03811182821017156200495b576200495b62004b97565b604052919050565b6000821982111562004979576200497962004b81565b500190565b6000826200499a57634e487b7160e01b81526012600452602481fd5b500490565b600181815b80851115620049e0578160001904821115620049c457620049c462004b81565b80851615620049d257918102915b93841c9390800290620049a4565b509250929050565b600062003a0a60ff84168360008262004a0457506001620005db565b8162004a1357506000620005db565b816001811462004a2c576002811462004a375762004a57565b6001915050620005db565b60ff84111562004a4b5762004a4b62004b81565b50506001821b620005db565b5060208310610133831016604e8410600b841016171562004a7c575081810a620005db565b62004a8883836200499f565b806000190482111562004a9f5762004a9f62004b81565b029392505050565b600081600019048311821515161562004ac45762004ac462004b81565b500290565b60008282101562004ade5762004ade62004b81565b500390565b60005b8381101562004b0057818101518382015260200162004ae6565b83811115620034e95750506000910152565b60008162004b245762004b2462004b81565b506000190190565b600181811c9082168062004b4157607f821691505b6020821081141562003ff557634e487b7160e01b600052602260045260246000fd5b600060001982141562004b7a5762004b7a62004b81565b5060010190565b634e487b7160e01b600052601160045260246000fd5b634e487b7160e01b600052604160045260246000fd5b6001600160a01b0381168114620014d057600080fd5b8015158114620014d057600080fd5b60ff81168114620014d057600080fdfe60c06040523480156200001157600080fd5b506040516200136238038062001362833981016040819052620000349162000267565b8251839083906200004d9060039060208501906200010e565b508051620000639060049060208401906200010e565b505050620000806200007a620000b860201b60201c565b620000bc565b3360601b60805260f81b7fff000000000000000000000000000000000000000000000000000000000000001660a052506200033b9050565b3390565b600580546001600160a01b038381166001600160a01b0319831681179093556040519116919082907f8be0079c531659141344cd1fd0a4f28419497f9722a3daafe3b4186f6b6457e090600090a35050565b8280546200011c90620002e8565b90600052602060002090601f0160209004810192826200014057600085556200018b565b82601f106200015b57805160ff19168380011785556200018b565b828001600101855582156200018b579182015b828111156200018b5782518255916020019190600101906200016e565b50620001999291506200019d565b5090565b5b808211156200019957600081556001016200019e565b600082601f830112620001c5578081fd5b81516001600160401b0380821115620001e257620001e262000325565b604051601f8301601f19908116603f011681019082821181831017156200020d576200020d62000325565b8160405283815260209250868385880101111562000229578485fd5b8491505b838210156200024c57858201830151818301840152908201906200022d565b838211156200025d57848385830101525b9695505050505050565b6000806000606084860312156200027c578283fd5b83516001600160401b038082111562000293578485fd5b620002a187838801620001b4565b94506020860151915080821115620002b7578384fd5b50620002c686828701620001b4565b925050604084015160ff81168114620002dd578182fd5b809150509250925092565b600181811c90821680620002fd57607f821691505b602082108114156200031f57634e487b7160e01b600052602260045260246000fd5b50919050565b634e487b7160e01b600052604160045260246000fd5b60805160601c60a05160f81c610fed62000375600039600081816101a401526102c40152600081816103370152610d3f0152610fed6000f3fe608060405234801561001057600080fd5b50600436106101375760003560e01c806379cc6790116100b8578063a9059cbb1161007c578063a9059cbb146102a4578063ac7c7360146102b7578063d3b5dc3b146102bf578063dd62ed3e146102e6578063f2fde38b1461031f578063fbfa77cf1461033257600080fd5b806379cc6790146102425780638da5cb5b1461025557806392ff0d311461027557806395d89b4114610289578063a457c2d71461029157600080fd5b806339509351116100ff57806339509351146101d657806340c10f19146101e957806342966c68146101fe57806370a0823114610211578063715018a61461023a57600080fd5b806306fdde031461013c578063095ea7b31461015a57806318160ddd1461017d57806323b872dd1461018f578063313ce567146101a2575b600080fd5b610144610359565b6040516101519190610e8f565b60405180910390f35b61016d610168366004610e4e565b6103eb565b6040519015158152602001610151565b6002545b604051908152602001610151565b61016d61019d366004610e13565b610401565b7f00000000000000000000000000000000000000000000000000000000000000005b60405160ff9091168152602001610151565b61016d6101e4366004610e4e565b6104b0565b6101fc6101f7366004610e4e565b6104ec565b005b6101fc61020c366004610e77565b610529565b61018161021f366004610dc0565b6001600160a01b031660009081526020819052604090205490565b6101fc610536565b6101fc610250366004610e4e565b610571565b61025d6105f7565b6040516001600160a01b039091168152602001610151565b60055461016d90600160a01b900460ff1681565b610144610606565b61016d61029f366004610e4e565b610615565b61016d6102b2366004610e4e565b6106ae565b6101fc6106bb565b6101c47f000000000000000000000000000000000000000000000000000000000000000081565b6101816102f4366004610de1565b6001600160a01b03918216600090815260016020908152604080832093909416825291909152205490565b6101fc61032d366004610dc0565b610728565b61025d7f000000000000000000000000000000000000000000000000000000000000000081565b60606003805461036890610f46565b80601f016020809104026020016040519081016040528092919081815260200182805461039490610f46565b80156103e15780601f106103b6576101008083540402835291602001916103e1565b820191906000526020600020905b8154815290600101906020018083116103c457829003601f168201915b5050505050905090565b60006103f83384846107c5565b50600192915050565b600061040e8484846108e9565b6001600160a01b0384166000908152600160209081526040808320338452909152902054828110156104985760405162461bcd60e51b815260206004820152602860248201527f45524332303a207472616e7366657220616d6f756e74206578636565647320616044820152676c6c6f77616e636560c01b60648201526084015b60405180910390fd5b6104a585338584036107c5565b506001949350505050565b3360008181526001602090815260408083206001600160a01b038716845290915281205490916103f89185906104e7908690610f17565b6107c5565b336104f56105f7565b6001600160a01b03161461051b5760405162461bcd60e51b815260040161048f90610ee2565b6105258282610ab1565b5050565b6105333382610b8a565b50565b3361053f6105f7565b6001600160a01b0316146105655760405162461bcd60e51b815260040161048f90610ee2565b61056f6000610cd2565b565b600061057d83336102f4565b9050818110156105db5760405162461bcd60e51b8152602060048201526024808201527f45524332303a206275726e20616d6f756e74206578636565647320616c6c6f77604482015263616e636560e01b606482015260840161048f565b6105e883338484036107c5565b6105f28383610b8a565b505050565b6005546001600160a01b031690565b60606004805461036890610f46565b3360009081526001602090815260408083206001600160a01b0386168452909152812054828110156106975760405162461bcd60e51b815260206004820152602560248201527f45524332303a2064656372656173656420616c6c6f77616e63652062656c6f77604482015264207a65726f60d81b606482015260840161048f565b6106a433858584036107c5565b5060019392505050565b60006103f83384846108e9565b336106c46105f7565b6001600160a01b0316146106ea5760405162461bcd60e51b815260040161048f90610ee2565b6005805460ff60a01b1916600160a01b1790556040517f885dac65aea4b9be9d55af82827cfff8cca3ed0fcc3f0fd5328735215e783da490600090a1565b336107316105f7565b6001600160a01b0316146107575760405162461bcd60e51b815260040161048f90610ee2565b6001600160a01b0381166107bc5760405162461bcd60e51b815260206004820152602660248201527f4f776e61626c653a206e6577206f776e657220697320746865207a65726f206160448201526564647265737360d01b606482015260840161048f565b61053381610cd2565b6001600160a01b0383166108275760405162461bcd60e51b8152602060048201526024808201527f45524332303a20617070726f76652066726f6d20746865207a65726f206164646044820152637265737360e01b606482015260840161048f565b6001600160a01b0382166108885760405162461bcd60e51b815260206004820152602260248201527f45524332303a20617070726f766520746f20746865207a65726f206164647265604482015261737360f01b606482015260840161048f565b6001600160a01b0383811660008181526001602090815260408083209487168084529482529182902085905590518481527f8c5be1e5ebec7d5bd14f71427d1e84f3dd0314c0f7b2291e5b200ac8c7c3b925910160405180910390a3505050565b6001600160a01b03831661094d5760405162461bcd60e51b815260206004820152602560248201527f45524332303a207472616e736665722066726f6d20746865207a65726f206164604482015264647265737360d81b606482015260840161048f565b6001600160a01b0382166109af5760405162461bcd60e51b815260206004820152602360248201527f45524332303a207472616e7366657220746f20746865207a65726f206164647260448201526265737360e81b606482015260840161048f565b6109ba838383610d24565b6001600160a01b03831660009081526020819052604090205481811015610a325760405162461bcd60e51b815260206004820152602660248201527f45524332303a207472616e7366657220616d6f756e7420657863656564732062604482015265616c616e636560d01b606482015260840161048f565b6001600160a01b03808516600090815260208190526040808220858503905591851681529081208054849290610a69908490610f17565b92505081905550826001600160a01b0316846001600160a01b0316600080516020610f9883398151915284604051610aa391815260200190565b60405180910390a350505050565b6001600160a01b038216610b075760405162461bcd60e51b815260206004820152601f60248201527f45524332303a206d696e7420746f20746865207a65726f206164647265737300604482015260640161048f565b610b1360008383610d24565b8060026000828254610b259190610f17565b90915550506001600160a01b03821660009081526020819052604081208054839290610b52908490610f17565b90915550506040518181526001600160a01b03831690600090600080516020610f988339815191529060200160405180910390a35050565b6001600160a01b038216610bea5760405162461bcd60e51b815260206004820152602160248201527f45524332303a206275726e2066726f6d20746865207a65726f206164647265736044820152607360f81b606482015260840161048f565b610bf682600083610d24565b6001600160a01b03821660009081526020819052604090205481811015610c6a5760405162461bcd60e51b815260206004820152602260248201527f45524332303a206275726e20616d6f756e7420657863656564732062616c616e604482015261636560f01b606482015260840161048f565b6001600160a01b0383166000908152602081905260408120838303905560028054849290610c99908490610f2f565b90915550506040518281526000906001600160a01b03851690600080516020610f988339815191529060200160405180910390a3505050565b600580546001600160a01b038381166001600160a01b0319831681179093556040519116919082907f8be0079c531659141344cd1fd0a4f28419497f9722a3daafe3b4186f6b6457e090600090a35050565b600554600160a01b900460ff166105f2576001600160a01b037f00000000000000000000000000000000000000000000000000000000000000001633146105f25760405162461bcd60e51b81526020600482015260146024820152731514905394d1915497d393d517d0531313d5d15160621b604482015260640161048f565b80356001600160a01b0381168114610dbb57600080fd5b919050565b600060208284031215610dd1578081fd5b610dda82610da4565b9392505050565b60008060408385031215610df3578081fd5b610dfc83610da4565b9150610e0a60208401610da4565b90509250929050565b600080600060608486031215610e27578081fd5b610e3084610da4565b9250610e3e60208501610da4565b9150604084013590509250925092565b60008060408385031215610e60578182fd5b610e6983610da4565b946020939093013593505050565b600060208284031215610e88578081fd5b5035919050565b6000602080835283518082850152825b81811015610ebb57858101830151858201604001528201610e9f565b81811115610ecc5783604083870101525b50601f01601f1916929092016040019392505050565b6020808252818101527f4f776e61626c653a2063616c6c6572206973206e6f7420746865206f776e6572604082015260600190565b60008219821115610f2a57610f2a610f81565b500190565b600082821015610f4157610f41610f81565b500390565b600181811c90821680610f5a57607f821691505b60208210811415610f7b57634e487b7160e01b600052602260045260246000fd5b50919050565b634e487b7160e01b600052601160045260246000fdfeddf252ad1be2c89b69c2b068fc378daa952ba7f163c4a11628f55a4df523b3efa264697066735822122057f15b9c4f7cd7c068e32a9d672c996629d1850049e4d2a9f4315e5e49f1790b64736f6c634300080400333fc733b4d20d27a28452ddf0e9351aced28242fe03389a653cdb783955316b9bfacaf2747a7486cf5730e9265973fb54447d3ace6e7e4711f6360826b0731941a26469706673582212208668afb3ce7efe111d5d6a64951ef657ad306dd5f25869ff419c75e2ec09df1f64736f6c63430008040033",
  "linkReferences": {},
  "deployedLinkReferences": {}
}